{
    "contractName": "BondingManager",
    "abi": [
        {
            "constant": true,
            "inputs": [
                {
                    "internalType": "uint256",
                    "name": "",
                    "type": "uint256"
                }
            ],
            "name": "activeTranscoderSetDEPRECATED",
            "outputs": [
                {
                    "internalType": "uint256",
                    "name": "totalStake",
                    "type": "uint256"
                }
            ],
            "payable": false,
            "stateMutability": "view",
            "type": "function"
        },
        {
            "constant": true,
            "inputs": [],
            "name": "maxEarningsClaimsRounds",
            "outputs": [
                {
                    "internalType": "uint256",
                    "name": "",
                    "type": "uint256"
                }
            ],
            "payable": false,
            "stateMutability": "view",
            "type": "function"
        },
        {
            "constant": true,
            "inputs": [],
            "name": "numActiveTranscodersDEPRECATED",
            "outputs": [
                {
                    "internalType": "uint256",
                    "name": "",
                    "type": "uint256"
                }
            ],
            "payable": false,
            "stateMutability": "view",
            "type": "function"
        },
        {
            "constant": true,
            "inputs": [],
            "name": "currentRoundTotalActiveStake",
            "outputs": [
                {
                    "internalType": "uint256",
                    "name": "",
                    "type": "uint256"
                }
            ],
            "payable": false,
            "stateMutability": "view",
            "type": "function"
        },
        {
            "constant": true,
            "inputs": [],
            "name": "nextRoundTotalActiveStake",
            "outputs": [
                {
                    "internalType": "uint256",
                    "name": "",
                    "type": "uint256"
                }
            ],
            "payable": false,
            "stateMutability": "view",
            "type": "function"
        },
        {
            "constant": true,
            "inputs": [],
            "name": "targetContractId",
            "outputs": [
                {
                    "internalType": "bytes32",
                    "name": "",
                    "type": "bytes32"
                }
            ],
            "payable": false,
            "stateMutability": "view",
            "type": "function"
        },
        {
            "constant": true,
            "inputs": [],
            "name": "unbondingPeriod",
            "outputs": [
                {
                    "internalType": "uint64",
                    "name": "",
                    "type": "uint64"
                }
            ],
            "payable": false,
            "stateMutability": "view",
            "type": "function"
        },
        {
            "constant": false,
            "inputs": [
                {
                    "internalType": "address",
                    "name": "_controller",
                    "type": "address"
                }
            ],
            "name": "setController",
            "outputs": [],
            "payable": false,
            "stateMutability": "nonpayable",
            "type": "function"
        },
        {
            "constant": true,
            "inputs": [],
            "name": "controller",
            "outputs": [
                {
                    "internalType": "contract IController",
                    "name": "",
                    "type": "address"
                }
            ],
            "payable": false,
            "stateMutability": "view",
            "type": "function"
        },
        {
            "inputs": [
                {
                    "internalType": "address",
                    "name": "_controller",
                    "type": "address"
                }
            ],
            "payable": false,
            "stateMutability": "nonpayable",
            "type": "constructor"
        },
        {
            "anonymous": false,
            "inputs": [
                {
                    "indexed": true,
                    "internalType": "address",
                    "name": "transcoder",
                    "type": "address"
                },
                {
                    "indexed": false,
                    "internalType": "uint256",
                    "name": "rewardCut",
                    "type": "uint256"
                },
                {
                    "indexed": false,
                    "internalType": "uint256",
                    "name": "feeShare",
                    "type": "uint256"
                }
            ],
            "name": "TranscoderUpdate",
            "type": "event"
        },
        {
            "anonymous": false,
            "inputs": [
                {
                    "indexed": true,
                    "internalType": "address",
                    "name": "transcoder",
                    "type": "address"
                },
                {
                    "indexed": false,
                    "internalType": "uint256",
                    "name": "activationRound",
                    "type": "uint256"
                }
            ],
            "name": "TranscoderActivated",
            "type": "event"
        },
        {
            "anonymous": false,
            "inputs": [
                {
                    "indexed": true,
                    "internalType": "address",
                    "name": "transcoder",
                    "type": "address"
                },
                {
                    "indexed": false,
                    "internalType": "uint256",
                    "name": "deactivationRound",
                    "type": "uint256"
                }
            ],
            "name": "TranscoderDeactivated",
            "type": "event"
        },
        {
            "anonymous": false,
            "inputs": [
                {
                    "indexed": true,
                    "internalType": "address",
                    "name": "transcoder",
                    "type": "address"
                },
                {
                    "indexed": false,
                    "internalType": "address",
                    "name": "finder",
                    "type": "address"
                },
                {
                    "indexed": false,
                    "internalType": "uint256",
                    "name": "penalty",
                    "type": "uint256"
                },
                {
                    "indexed": false,
                    "internalType": "uint256",
                    "name": "finderReward",
                    "type": "uint256"
                }
            ],
            "name": "TranscoderSlashed",
            "type": "event"
        },
        {
            "anonymous": false,
            "inputs": [
                {
                    "indexed": true,
                    "internalType": "address",
                    "name": "transcoder",
                    "type": "address"
                },
                {
                    "indexed": false,
                    "internalType": "uint256",
                    "name": "amount",
                    "type": "uint256"
                }
            ],
            "name": "Reward",
            "type": "event"
        },
        {
            "anonymous": false,
            "inputs": [
                {
                    "indexed": true,
                    "internalType": "address",
                    "name": "newDelegate",
                    "type": "address"
                },
                {
                    "indexed": true,
                    "internalType": "address",
                    "name": "oldDelegate",
                    "type": "address"
                },
                {
                    "indexed": true,
                    "internalType": "address",
                    "name": "delegator",
                    "type": "address"
                },
                {
                    "indexed": false,
                    "internalType": "uint256",
                    "name": "additionalAmount",
                    "type": "uint256"
                },
                {
                    "indexed": false,
                    "internalType": "uint256",
                    "name": "bondedAmount",
                    "type": "uint256"
                }
            ],
            "name": "Bond",
            "type": "event"
        },
        {
            "anonymous": false,
            "inputs": [
                {
                    "indexed": true,
                    "internalType": "address",
                    "name": "delegate",
                    "type": "address"
                },
                {
                    "indexed": true,
                    "internalType": "address",
                    "name": "delegator",
                    "type": "address"
                },
                {
                    "indexed": false,
                    "internalType": "uint256",
                    "name": "unbondingLockId",
                    "type": "uint256"
                },
                {
                    "indexed": false,
                    "internalType": "uint256",
                    "name": "amount",
                    "type": "uint256"
                },
                {
                    "indexed": false,
                    "internalType": "uint256",
                    "name": "withdrawRound",
                    "type": "uint256"
                }
            ],
            "name": "Unbond",
            "type": "event"
        },
        {
            "anonymous": false,
            "inputs": [
                {
                    "indexed": true,
                    "internalType": "address",
                    "name": "delegate",
                    "type": "address"
                },
                {
                    "indexed": true,
                    "internalType": "address",
                    "name": "delegator",
                    "type": "address"
                },
                {
                    "indexed": false,
                    "internalType": "uint256",
                    "name": "unbondingLockId",
                    "type": "uint256"
                },
                {
                    "indexed": false,
                    "internalType": "uint256",
                    "name": "amount",
                    "type": "uint256"
                }
            ],
            "name": "Rebond",
            "type": "event"
        },
        {
            "anonymous": false,
            "inputs": [
                {
                    "indexed": true,
                    "internalType": "address",
                    "name": "delegator",
                    "type": "address"
                },
                {
                    "indexed": false,
                    "internalType": "uint256",
                    "name": "unbondingLockId",
                    "type": "uint256"
                },
                {
                    "indexed": false,
                    "internalType": "uint256",
                    "name": "amount",
                    "type": "uint256"
                },
                {
                    "indexed": false,
                    "internalType": "uint256",
                    "name": "withdrawRound",
                    "type": "uint256"
                }
            ],
            "name": "WithdrawStake",
            "type": "event"
        },
        {
            "anonymous": false,
            "inputs": [
                {
                    "indexed": true,
                    "internalType": "address",
                    "name": "delegator",
                    "type": "address"
                }
            ],
            "name": "WithdrawFees",
            "type": "event"
        },
        {
            "anonymous": false,
            "inputs": [
                {
                    "indexed": true,
                    "internalType": "address",
                    "name": "delegate",
                    "type": "address"
                },
                {
                    "indexed": true,
                    "internalType": "address",
                    "name": "delegator",
                    "type": "address"
                },
                {
                    "indexed": false,
                    "internalType": "uint256",
                    "name": "rewards",
                    "type": "uint256"
                },
                {
                    "indexed": false,
                    "internalType": "uint256",
                    "name": "fees",
                    "type": "uint256"
                },
                {
                    "indexed": false,
                    "internalType": "uint256",
                    "name": "startRound",
                    "type": "uint256"
                },
                {
                    "indexed": false,
                    "internalType": "uint256",
                    "name": "endRound",
                    "type": "uint256"
                }
            ],
            "name": "EarningsClaimed",
            "type": "event"
        },
        {
            "anonymous": false,
            "inputs": [
                {
                    "indexed": false,
                    "internalType": "address",
                    "name": "controller",
                    "type": "address"
                }
            ],
            "name": "SetController",
            "type": "event"
        },
        {
            "anonymous": false,
            "inputs": [
                {
                    "indexed": false,
                    "internalType": "string",
                    "name": "param",
                    "type": "string"
                }
            ],
            "name": "ParameterUpdate",
            "type": "event"
        },
        {
            "constant": false,
            "inputs": [
                {
                    "internalType": "uint64",
                    "name": "_unbondingPeriod",
                    "type": "uint64"
                }
            ],
            "name": "setUnbondingPeriod",
            "outputs": [],
            "payable": false,
            "stateMutability": "nonpayable",
            "type": "function"
        },
        {
            "constant": false,
            "inputs": [
                {
                    "internalType": "uint256",
                    "name": "_numActiveTranscoders",
                    "type": "uint256"
                }
            ],
            "name": "setNumActiveTranscoders",
            "outputs": [],
            "payable": false,
            "stateMutability": "nonpayable",
            "type": "function"
        },
        {
            "constant": false,
            "inputs": [
                {
                    "internalType": "uint256",
                    "name": "_maxEarningsClaimsRounds",
                    "type": "uint256"
                }
            ],
            "name": "setMaxEarningsClaimsRounds",
            "outputs": [],
            "payable": false,
            "stateMutability": "nonpayable",
            "type": "function"
        },
        {
            "constant": false,
            "inputs": [
                {
                    "internalType": "uint256",
                    "name": "_rewardCut",
                    "type": "uint256"
                },
                {
                    "internalType": "uint256",
                    "name": "_feeShare",
                    "type": "uint256"
                }
            ],
            "name": "transcoder",
            "outputs": [],
            "payable": false,
            "stateMutability": "nonpayable",
            "type": "function"
        },
        {
            "constant": false,
            "inputs": [
                {
                    "internalType": "uint256",
                    "name": "_amount",
                    "type": "uint256"
                },
                {
                    "internalType": "address",
                    "name": "_to",
                    "type": "address"
                }
            ],
            "name": "bond",
            "outputs": [],
            "payable": false,
            "stateMutability": "nonpayable",
            "type": "function"
        },
        {
            "constant": false,
            "inputs": [
                {
                    "internalType": "uint256",
                    "name": "_amount",
                    "type": "uint256"
                }
            ],
            "name": "unbond",
            "outputs": [],
            "payable": false,
            "stateMutability": "nonpayable",
            "type": "function"
        },
        {
            "constant": false,
            "inputs": [
                {
                    "internalType": "uint256",
                    "name": "_unbondingLockId",
                    "type": "uint256"
                }
            ],
            "name": "rebond",
            "outputs": [],
            "payable": false,
            "stateMutability": "nonpayable",
            "type": "function"
        },
        {
            "constant": false,
            "inputs": [
                {
                    "internalType": "address",
                    "name": "_to",
                    "type": "address"
                },
                {
                    "internalType": "uint256",
                    "name": "_unbondingLockId",
                    "type": "uint256"
                }
            ],
            "name": "rebondFromUnbonded",
            "outputs": [],
            "payable": false,
            "stateMutability": "nonpayable",
            "type": "function"
        },
        {
            "constant": false,
            "inputs": [
                {
                    "internalType": "uint256",
                    "name": "_unbondingLockId",
                    "type": "uint256"
                }
            ],
            "name": "withdrawStake",
            "outputs": [],
            "payable": false,
            "stateMutability": "nonpayable",
            "type": "function"
        },
        {
            "constant": false,
            "inputs": [],
            "name": "withdrawFees",
            "outputs": [],
            "payable": false,
            "stateMutability": "nonpayable",
            "type": "function"
        },
        {
            "constant": false,
            "inputs": [],
            "name": "reward",
            "outputs": [],
            "payable": false,
            "stateMutability": "nonpayable",
            "type": "function"
        },
        {
            "constant": false,
            "inputs": [
                {
                    "internalType": "address",
                    "name": "_transcoder",
                    "type": "address"
                },
                {
                    "internalType": "uint256",
                    "name": "_fees",
                    "type": "uint256"
                },
                {
                    "internalType": "uint256",
                    "name": "_round",
                    "type": "uint256"
                }
            ],
            "name": "updateTranscoderWithFees",
            "outputs": [],
            "payable": false,
            "stateMutability": "nonpayable",
            "type": "function"
        },
        {
            "constant": false,
            "inputs": [
                {
                    "internalType": "address",
                    "name": "_transcoder",
                    "type": "address"
                },
                {
                    "internalType": "address",
                    "name": "_finder",
                    "type": "address"
                },
                {
                    "internalType": "uint256",
                    "name": "_slashAmount",
                    "type": "uint256"
                },
                {
                    "internalType": "uint256",
                    "name": "_finderFee",
                    "type": "uint256"
                }
            ],
            "name": "slashTranscoder",
            "outputs": [],
            "payable": false,
            "stateMutability": "nonpayable",
            "type": "function"
        },
        {
            "constant": false,
            "inputs": [
                {
                    "internalType": "uint256",
                    "name": "_endRound",
                    "type": "uint256"
                }
            ],
            "name": "claimEarnings",
            "outputs": [],
            "payable": false,
            "stateMutability": "nonpayable",
            "type": "function"
        },
        {
            "constant": false,
            "inputs": [],
            "name": "setCurrentRoundTotalActiveStake",
            "outputs": [],
            "payable": false,
            "stateMutability": "nonpayable",
            "type": "function"
        },
        {
            "constant": false,
            "inputs": [
                {
                    "internalType": "uint256",
                    "name": "_rewardCut",
                    "type": "uint256"
                },
                {
                    "internalType": "uint256",
                    "name": "_feeShare",
                    "type": "uint256"
                },
                {
                    "internalType": "address",
                    "name": "_newPosPrev",
                    "type": "address"
                },
                {
                    "internalType": "address",
                    "name": "_newPosNext",
                    "type": "address"
                }
            ],
            "name": "transcoderWithHint",
            "outputs": [],
            "payable": false,
            "stateMutability": "nonpayable",
            "type": "function"
        },
        {
            "constant": false,
            "inputs": [
                {
                    "internalType": "uint256",
                    "name": "_amount",
                    "type": "uint256"
                },
                {
                    "internalType": "address",
                    "name": "_to",
                    "type": "address"
                },
                {
                    "internalType": "address",
                    "name": "_oldDelegateNewPosPrev",
                    "type": "address"
                },
                {
                    "internalType": "address",
                    "name": "_oldDelegateNewPosNext",
                    "type": "address"
                },
                {
                    "internalType": "address",
                    "name": "_currDelegateNewPosPrev",
                    "type": "address"
                },
                {
                    "internalType": "address",
                    "name": "_currDelegateNewPosNext",
                    "type": "address"
                }
            ],
            "name": "bondWithHint",
            "outputs": [],
            "payable": false,
            "stateMutability": "nonpayable",
            "type": "function"
        },
        {
            "constant": false,
            "inputs": [
                {
                    "internalType": "uint256",
                    "name": "_amount",
                    "type": "uint256"
                },
                {
                    "internalType": "address",
                    "name": "_newPosPrev",
                    "type": "address"
                },
                {
                    "internalType": "address",
                    "name": "_newPosNext",
                    "type": "address"
                }
            ],
            "name": "unbondWithHint",
            "outputs": [],
            "payable": false,
            "stateMutability": "nonpayable",
            "type": "function"
        },
        {
            "constant": false,
            "inputs": [
                {
                    "internalType": "uint256",
                    "name": "_unbondingLockId",
                    "type": "uint256"
                },
                {
                    "internalType": "address",
                    "name": "_newPosPrev",
                    "type": "address"
                },
                {
                    "internalType": "address",
                    "name": "_newPosNext",
                    "type": "address"
                }
            ],
            "name": "rebondWithHint",
            "outputs": [],
            "payable": false,
            "stateMutability": "nonpayable",
            "type": "function"
        },
        {
            "constant": false,
            "inputs": [
                {
                    "internalType": "address",
                    "name": "_to",
                    "type": "address"
                },
                {
                    "internalType": "uint256",
                    "name": "_unbondingLockId",
                    "type": "uint256"
                },
                {
                    "internalType": "address",
                    "name": "_newPosPrev",
                    "type": "address"
                },
                {
                    "internalType": "address",
                    "name": "_newPosNext",
                    "type": "address"
                }
            ],
            "name": "rebondFromUnbondedWithHint",
            "outputs": [],
            "payable": false,
            "stateMutability": "nonpayable",
            "type": "function"
        },
        {
            "constant": false,
            "inputs": [
                {
                    "internalType": "address",
                    "name": "_newPosPrev",
                    "type": "address"
                },
                {
                    "internalType": "address",
                    "name": "_newPosNext",
                    "type": "address"
                }
            ],
            "name": "rewardWithHint",
            "outputs": [],
            "payable": false,
            "stateMutability": "nonpayable",
            "type": "function"
        },
        {
            "constant": true,
            "inputs": [
                {
                    "internalType": "address",
                    "name": "_delegator",
                    "type": "address"
                },
                {
                    "internalType": "uint256",
                    "name": "_endRound",
                    "type": "uint256"
                }
            ],
            "name": "pendingStake",
            "outputs": [
                {
                    "internalType": "uint256",
                    "name": "",
                    "type": "uint256"
                }
            ],
            "payable": false,
            "stateMutability": "view",
            "type": "function"
        },
        {
            "constant": true,
            "inputs": [
                {
                    "internalType": "address",
                    "name": "_delegator",
                    "type": "address"
                },
                {
                    "internalType": "uint256",
                    "name": "_endRound",
                    "type": "uint256"
                }
            ],
            "name": "pendingFees",
            "outputs": [
                {
                    "internalType": "uint256",
                    "name": "",
                    "type": "uint256"
                }
            ],
            "payable": false,
            "stateMutability": "view",
            "type": "function"
        },
        {
            "constant": true,
            "inputs": [
                {
                    "internalType": "address",
                    "name": "_transcoder",
                    "type": "address"
                }
            ],
            "name": "transcoderTotalStake",
            "outputs": [
                {
                    "internalType": "uint256",
                    "name": "",
                    "type": "uint256"
                }
            ],
            "payable": false,
            "stateMutability": "view",
            "type": "function"
        },
        {
            "constant": true,
            "inputs": [
                {
                    "internalType": "address",
                    "name": "_transcoder",
                    "type": "address"
                }
            ],
            "name": "transcoderStatus",
            "outputs": [
                {
                    "internalType": "enum BondingManager.TranscoderStatus",
                    "name": "",
                    "type": "uint8"
                }
            ],
            "payable": false,
            "stateMutability": "view",
            "type": "function"
        },
        {
            "constant": true,
            "inputs": [
                {
                    "internalType": "address",
                    "name": "_delegator",
                    "type": "address"
                }
            ],
            "name": "delegatorStatus",
            "outputs": [
                {
                    "internalType": "enum BondingManager.DelegatorStatus",
                    "name": "",
                    "type": "uint8"
                }
            ],
            "payable": false,
            "stateMutability": "view",
            "type": "function"
        },
        {
            "constant": true,
            "inputs": [
                {
                    "internalType": "address",
                    "name": "_transcoder",
                    "type": "address"
                }
            ],
            "name": "getTranscoder",
            "outputs": [
                {
                    "internalType": "uint256",
                    "name": "lastRewardRound",
                    "type": "uint256"
                },
                {
                    "internalType": "uint256",
                    "name": "rewardCut",
                    "type": "uint256"
                },
                {
                    "internalType": "uint256",
                    "name": "feeShare",
                    "type": "uint256"
                },
                {
                    "internalType": "uint256",
                    "name": "lastActiveStakeUpdateRound",
                    "type": "uint256"
                },
                {
                    "internalType": "uint256",
                    "name": "activationRound",
                    "type": "uint256"
                },
                {
                    "internalType": "uint256",
                    "name": "deactivationRound",
                    "type": "uint256"
                }
            ],
            "payable": false,
            "stateMutability": "view",
            "type": "function"
        },
        {
            "constant": true,
            "inputs": [
                {
                    "internalType": "address",
                    "name": "_transcoder",
                    "type": "address"
                },
                {
                    "internalType": "uint256",
                    "name": "_round",
                    "type": "uint256"
                }
            ],
            "name": "getTranscoderEarningsPoolForRound",
            "outputs": [
                {
                    "internalType": "uint256",
                    "name": "rewardPool",
                    "type": "uint256"
                },
                {
                    "internalType": "uint256",
                    "name": "feePool",
                    "type": "uint256"
                },
                {
                    "internalType": "uint256",
                    "name": "totalStake",
                    "type": "uint256"
                },
                {
                    "internalType": "uint256",
                    "name": "claimableStake",
                    "type": "uint256"
                },
                {
                    "internalType": "uint256",
                    "name": "transcoderRewardCut",
                    "type": "uint256"
                },
                {
                    "internalType": "uint256",
                    "name": "transcoderFeeShare",
                    "type": "uint256"
                },
                {
                    "internalType": "uint256",
                    "name": "transcoderRewardPool",
                    "type": "uint256"
                },
                {
                    "internalType": "uint256",
                    "name": "transcoderFeePool",
                    "type": "uint256"
                },
                {
                    "internalType": "bool",
                    "name": "hasTranscoderRewardFeePool",
                    "type": "bool"
                }
            ],
            "payable": false,
            "stateMutability": "view",
            "type": "function"
        },
        {
            "constant": true,
            "inputs": [
                {
                    "internalType": "address",
                    "name": "_delegator",
                    "type": "address"
                }
            ],
            "name": "getDelegator",
            "outputs": [
                {
                    "internalType": "uint256",
                    "name": "bondedAmount",
                    "type": "uint256"
                },
                {
                    "internalType": "uint256",
                    "name": "fees",
                    "type": "uint256"
                },
                {
                    "internalType": "address",
                    "name": "delegateAddress",
                    "type": "address"
                },
                {
                    "internalType": "uint256",
                    "name": "delegatedAmount",
                    "type": "uint256"
                },
                {
                    "internalType": "uint256",
                    "name": "startRound",
                    "type": "uint256"
                },
                {
                    "internalType": "uint256",
                    "name": "lastClaimRound",
                    "type": "uint256"
                },
                {
                    "internalType": "uint256",
                    "name": "nextUnbondingLockId",
                    "type": "uint256"
                }
            ],
            "payable": false,
            "stateMutability": "view",
            "type": "function"
        },
        {
            "constant": true,
            "inputs": [
                {
                    "internalType": "address",
                    "name": "_delegator",
                    "type": "address"
                },
                {
                    "internalType": "uint256",
                    "name": "_unbondingLockId",
                    "type": "uint256"
                }
            ],
            "name": "getDelegatorUnbondingLock",
            "outputs": [
                {
                    "internalType": "uint256",
                    "name": "amount",
                    "type": "uint256"
                },
                {
                    "internalType": "uint256",
                    "name": "withdrawRound",
                    "type": "uint256"
                }
            ],
            "payable": false,
            "stateMutability": "view",
            "type": "function"
        },
        {
            "constant": true,
            "inputs": [],
            "name": "getTranscoderPoolMaxSize",
            "outputs": [
                {
                    "internalType": "uint256",
                    "name": "",
                    "type": "uint256"
                }
            ],
            "payable": false,
            "stateMutability": "view",
            "type": "function"
        },
        {
            "constant": true,
            "inputs": [],
            "name": "getTranscoderPoolSize",
            "outputs": [
                {
                    "internalType": "uint256",
                    "name": "",
                    "type": "uint256"
                }
            ],
            "payable": false,
            "stateMutability": "view",
            "type": "function"
        },
        {
            "constant": true,
            "inputs": [],
            "name": "getFirstTranscoderInPool",
            "outputs": [
                {
                    "internalType": "address",
                    "name": "",
                    "type": "address"
                }
            ],
            "payable": false,
            "stateMutability": "view",
            "type": "function"
        },
        {
            "constant": true,
            "inputs": [
                {
                    "internalType": "address",
                    "name": "_transcoder",
                    "type": "address"
                }
            ],
            "name": "getNextTranscoderInPool",
            "outputs": [
                {
                    "internalType": "address",
                    "name": "",
                    "type": "address"
                }
            ],
            "payable": false,
            "stateMutability": "view",
            "type": "function"
        },
        {
            "constant": true,
            "inputs": [],
            "name": "getTotalBonded",
            "outputs": [
                {
                    "internalType": "uint256",
                    "name": "",
                    "type": "uint256"
                }
            ],
            "payable": false,
            "stateMutability": "view",
            "type": "function"
        },
        {
            "constant": true,
            "inputs": [
                {
                    "internalType": "address",
                    "name": "_transcoder",
                    "type": "address"
                }
            ],
            "name": "isActiveTranscoder",
            "outputs": [
                {
                    "internalType": "bool",
                    "name": "",
                    "type": "bool"
                }
            ],
            "payable": false,
            "stateMutability": "view",
            "type": "function"
        },
        {
            "constant": true,
            "inputs": [
                {
                    "internalType": "address",
                    "name": "_transcoder",
                    "type": "address"
                }
            ],
            "name": "isRegisteredTranscoder",
            "outputs": [
                {
                    "internalType": "bool",
                    "name": "",
                    "type": "bool"
                }
            ],
            "payable": false,
            "stateMutability": "view",
            "type": "function"
        },
        {
            "constant": true,
            "inputs": [
                {
                    "internalType": "address",
                    "name": "_delegator",
                    "type": "address"
                },
                {
                    "internalType": "uint256",
                    "name": "_unbondingLockId",
                    "type": "uint256"
                }
            ],
            "name": "isValidUnbondingLock",
            "outputs": [
                {
                    "internalType": "bool",
                    "name": "",
                    "type": "bool"
                }
            ],
            "payable": false,
            "stateMutability": "view",
            "type": "function"
        }
    ],
    "bytecode": "0x608060405234801561001057600080fd5b5060405162005719380380620057198339818101604052602081101561003557600080fd5b5051600080546001600160a01b039092166001600160a01b03199092169190911790556156b180620000686000396000f3fe608060405234801561001057600080fd5b50600436106102955760003560e01c806351720b411161016757806388a6c749116100ce578063a64ad59511610087578063a64ad595146108d1578063b78d27dc14610937578063eaffb3f914610963578063f10d1de114610980578063f595f1cc146109a7578063f77c4791146109d357610295565b806388a6c749146107e75780638b2f1652146107ef57806392eefe9b146108255780639500ed9b1461084b5780639d0b2c7a1461087f5780639ef9df94146108ab57610295565b80636bd9add4116101205780636bd9add4146106ed5780636cf6d6751461073b578063713f22161461076057806372d9f13d146107685780637fc4606f1461078557806381871056146107b957610295565b806351720b41146106395780635a2a75a9146106415780635c50c356146106495780635dce994814610651578063673a456b146106aa57806368ba170c146106c757610295565b806325d5971f1161020b5780633c725cbb116101c45780633c725cbb146105b1578063412f83b6146105b95780634196ee75146105fe57806343d3461a14610606578063465501d314610629578063476343ee1461063157610295565b806325d5971f146104d757806327de9e32146104f45780632a4e0d55146105115780633550aa10146105195780633a080e93146105535780633aeb512c1461057f57610295565b80631544fc671161025d5780631544fc6714610375578063228cb733146103bf57806322bf9d7c146103c7578063235c96031461040357806324454fc41461044557806324b1babf146104ba57610295565b8063014ee2591461029a578063038424c3146102c95780630584a373146102d1578063088023741461030f5780630fd02fc114610349575b600080fd5b6102b7600480360360208110156102b057600080fd5b50356109db565b60408051918252519081900360200190f35b6102b76109f0565b61030d600480360360808110156102e757600080fd5b506001600160a01b038135811691602081013591604082013581169160600135166109f6565b005b6103356004803603602081101561032557600080fd5b50356001600160a01b0316610d24565b604080519115158252519081900360200190f35b6103356004803603604081101561035f57600080fd5b506001600160a01b038135169060200135610dcd565b61039b6004803603602081101561038b57600080fd5b50356001600160a01b0316610e00565b604051808260028111156103ab57fe5b60ff16815260200191505060405180910390f35b61030d610eb3565b61030d600480360360808110156103dd57600080fd5b506001600160a01b03813581169160208101359091169060408101359060600135610ec0565b6104296004803603602081101561041957600080fd5b50356001600160a01b031661143f565b604080516001600160a01b039092168252519081900360200190f35b6104716004803603604081101561045b57600080fd5b506001600160a01b0381351690602001356114d6565b60408051998a5260208a0198909852888801969096526060880194909452608087019290925260a086015260c085015260e0840152151561010083015251908190036101200190f35b61030d600480360360208110156104d057600080fd5b503561153d565b61030d600480360360208110156104ed57600080fd5b50356117b0565b61030d6004803603602081101561050a57600080fd5b5035611b2a565b6102b7611b39565b61030d6004803603608081101561052f57600080fd5b508035906020810135906001600160a01b0360408201358116916060013516611bbe565b61030d6004803603604081101561056957600080fd5b506001600160a01b0381351690602001356120b3565b61030d6004803603606081101561059557600080fd5b506001600160a01b0381351690602081013590604001356120c0565b6102b7612323565b6105e5600480360360408110156105cf57600080fd5b506001600160a01b038135169060200135612329565b6040805192835260208301919091528051918290030190f35b6102b761235d565b61030d6004803603604081101561061c57600080fd5b5080359060200135612363565b6102b7612370565b61030d612376565b6102b7612696565b6102b761269c565b6102b76126f0565b6106776004803603602081101561066757600080fd5b50356001600160a01b03166126f6565b604080519687526020870195909552858501939093526060850191909152608084015260a0830152519081900360c00190f35b61030d600480360360208110156106c057600080fd5b5035612733565b610335600480360360208110156106dd57600080fd5b50356001600160a01b03166128d4565b61030d600480360360c081101561070357600080fd5b508035906001600160a01b03602082013581169160408101358216916060820135811691608081013582169160a0909101351661290c565b610743612e21565b6040805167ffffffffffffffff9092168252519081900360200190f35b61030d612e31565b61030d6004803603602081101561077e57600080fd5b5035612f29565b61030d6004803603606081101561079b57600080fd5b508035906001600160a01b0360208201358116916040013516613066565b61030d600480360360408110156107cf57600080fd5b506001600160a01b03813581169160200135166132d3565b610429613684565b6108156004803603602081101561080557600080fd5b50356001600160a01b03166136d8565b604051808260018111156103ab57fe5b61030d6004803603602081101561083b57600080fd5b50356001600160a01b03166136f8565b61030d6004803603606081101561086157600080fd5b508035906001600160a01b03602082013581169160400135166137ab565b6102b76004803603604081101561089557600080fd5b506001600160a01b038135169060200135613cb2565b6102b7600480360360208110156108c157600080fd5b50356001600160a01b0316613dd0565b6108f7600480360360208110156108e757600080fd5b50356001600160a01b0316613dee565b6040805197885260208801969096526001600160a01b03909416868601526060860192909252608085015260a084015260c0830152519081900360e00190f35b61030d6004803603604081101561094d57600080fd5b50803590602001356001600160a01b0316613e3a565b61030d6004803603602081101561097957600080fd5b5035613e4a565b61030d6004803603602081101561099657600080fd5b503567ffffffffffffffff16613e56565b6102b7600480360360408110156109bd57600080fd5b506001600160a01b038135169060200135613f9e565b6104296140e9565b600d6020526000908152604090206002015481565b60045481565b6000809054906101000a90046001600160a01b03166001600160a01b0316635c975abb6040518163ffffffff1660e01b815260040160206040518083038186803b158015610a4357600080fd5b505afa158015610a57573d6000803e3d6000fd5b505050506040513d6020811015610a6d57600080fd5b505115610ab4576040805162461bcd60e51b815260206004820152601060248201526f1cde5cdd195b481a5cc81c185d5cd95960821b604482015290519081900360640190fd5b610abc6140f8565b6001600160a01b031663219bc76c6040518163ffffffff1660e01b815260040160206040518083038186803b158015610af457600080fd5b505afa158015610b08573d6000803e3d6000fd5b505050506040513d6020811015610b1e57600080fd5b5051610b5f576040805162461bcd60e51b81526020600482018190526024820152600080516020615635833981519152604482015290519081900360640190fd5b6000610b696140f8565b6001600160a01b0316638a19c8bc6040518163ffffffff1660e01b815260040160206040518083038186803b158015610ba157600080fd5b505afa158015610bb5573d6000803e3d6000fd5b505050506040513d6020811015610bcb57600080fd5b50513360009081526005602052604090206006015490915081811015610bf657610bf6338383614175565b6002610c0133610e00565b6002811115610c0c57fe5b14610c5e576040805162461bcd60e51b815260206004820152601760248201527f63616c6c6572206d75737420626520756e626f6e646564000000000000000000604482015290519081900360640190fd5b610cdb6001610c6b6140f8565b6001600160a01b0316638a19c8bc6040518163ffffffff1660e01b815260040160206040518083038186803b158015610ca357600080fd5b505afa158015610cb7573d6000803e3d6000fd5b505050506040513d6020811015610ccd57600080fd5b50519063ffffffff61436116565b3360008181526005602052604090206004810192909255600290910180546001600160a01b0319166001600160a01b038916179055610d1c908686866143bb565b505050505050565b6001600160a01b038116600090815260066020526040812081610d456140f8565b6001600160a01b0316638a19c8bc6040518163ffffffff1660e01b815260040160206040518083038186803b158015610d7d57600080fd5b505afa158015610d91573d6000803e3d6000fd5b505050506040513d6020811015610da757600080fd5b505160098301549091508110801590610dc3575081600a015481105b925050505b919050565b6001600160a01b038216600090815260056020908152604080832084845260080190915290206001015415155b92915050565b6001600160a01b03811660009081526005602052604081208054610e28576002915050610dc8565b610e306140f8565b6001600160a01b0316638a19c8bc6040518163ffffffff1660e01b815260040160206040518083038186803b158015610e6857600080fd5b505afa158015610e7c573d6000803e3d6000fd5b505050506040513d6020811015610e9257600080fd5b505160048201541115610ea9576000915050610dc8565b6001915050610dc8565b610ebe6000806132d3565b565b6000809054906101000a90046001600160a01b03166001600160a01b0316635c975abb6040518163ffffffff1660e01b815260040160206040518083038186803b158015610f0d57600080fd5b505afa158015610f21573d6000803e3d6000fd5b505050506040513d6020811015610f3757600080fd5b505115610f7e576040805162461bcd60e51b815260206004820152601060248201526f1cde5cdd195b481a5cc81c185d5cd95960821b604482015290519081900360640190fd5b60005460408051672b32b934b334b2b960c11b81528151908190036008018120631c2d8fb360e31b8252600482015290516001600160a01b039092169163e16c7d9891602480820192602092909190829003018186803b158015610fe157600080fd5b505afa158015610ff5573d6000803e3d6000fd5b505050506040513d602081101561100b57600080fd5b50516001600160a01b03163314611069576040805162461bcd60e51b815260206004820152601760248201527f63616c6c6572206d757374206265205665726966696572000000000000000000604482015290519081900360640190fd5b6001600160a01b03841660009081526005602052604090208054156113e9576001600160a01b0385166000908152600560205260408120546110ab90856144d5565b6040805163b0138c4760e01b8152601060048201526001600160a01b0389166024820152905191925073__SortedDoublyLL________________________9163b0138c4791604480820192602092909190829003018186803b15801561111057600080fd5b505af4158015611124573d6000803e3d6000fd5b505050506040513d602081101561113a57600080fd5b50511561114a5761114a866144fa565b815461115c908263ffffffff6145fd16565b8255600161116987610e00565b600281111561117457fe5b14156111cb5760028201546001600160a01b03166000908152600560205260409020600301546111aa908263ffffffff6145fd16565b60028301546001600160a01b03166000908152600560205260409020600301555b806001600160a01b038616156113305760006111e783866144d5565b90506111f161465a565b6001600160a01b031663e7a49c2b88836040518363ffffffff1660e01b815260040180836001600160a01b03166001600160a01b0316815260200182815260200192505050600060405180830381600087803b15801561125057600080fd5b505af1158015611264573d6000803e3d6000fd5b5050505061127061465a565b6001600160a01b031663c7ee98c261128e848463ffffffff6145fd16565b6040518263ffffffff1660e01b815260040180828152602001915050600060405180830381600087803b1580156112c457600080fd5b505af11580156112d8573d6000803e3d6000fd5b5050604080516001600160a01b038b81168252602082018890528183018690529151918c1693507ff4b71fed8e2c9a8c67c388bc6d35ad20b9368a24eed6d565459f2b277b6c0c22925081900360600190a2506113e2565b61133861465a565b6001600160a01b031663c7ee98c2826040518263ffffffff1660e01b815260040180828152602001915050600060405180830381600087803b15801561137d57600080fd5b505af1158015611391573d6000803e3d6000fd5b5050604080516000808252602082018790528183015290516001600160a01b038b1693507ff4b71fed8e2c9a8c67c388bc6d35ad20b9368a24eed6d565459f2b277b6c0c2292509081900360600190a25b5050611438565b604080516001600160a01b038681168252600060208301819052828401529151918716917ff4b71fed8e2c9a8c67c388bc6d35ad20b9368a24eed6d565459f2b277b6c0c229181900360600190a25b5050505050565b6040805163e189dedb60e01b8152601060048201526001600160a01b0383166024820152905160009173__SortedDoublyLL________________________9163e189dedb91604480820192602092909190829003018186803b1580156114a457600080fd5b505af41580156114b8573d6000803e3d6000fd5b505050506040513d60208110156114ce57600080fd5b505192915050565b6001600160a01b03909116600090815260066020818152604080842094845260079485019091529091208054600182015460028301546003840154600485015460058601549686015497860154600890960154949893979296919590949193909160ff1690565b6000809054906101000a90046001600160a01b03166001600160a01b0316635c975abb6040518163ffffffff1660e01b815260040160206040518083038186803b15801561158a57600080fd5b505afa15801561159e573d6000803e3d6000fd5b505050506040513d60208110156115b457600080fd5b5051156115fb576040805162461bcd60e51b815260206004820152601060248201526f1cde5cdd195b481a5cc81c185d5cd95960821b604482015290519081900360640190fd5b6116036140f8565b6001600160a01b031663219bc76c6040518163ffffffff1660e01b815260040160206040518083038186803b15801561163b57600080fd5b505afa15801561164f573d6000803e3d6000fd5b505050506040513d602081101561166557600080fd5b50516116a6576040805162461bcd60e51b81526020600482018190526024820152600080516020615635833981519152604482015290519081900360640190fd5b336000908152600560205260409020600601548181106116f75760405162461bcd60e51b81526004018080602001828103825260288152602001806156556028913960400191505060405180910390fd5b6116ff6140f8565b6001600160a01b0316638a19c8bc6040518163ffffffff1660e01b815260040160206040518083038186803b15801561173757600080fd5b505afa15801561174b573d6000803e3d6000fd5b505050506040513d602081101561176157600080fd5b50518211156117a15760405162461bcd60e51b815260040180806020018281038252603281526020018061556c6032913960400191505060405180910390fd5b6117ac338383614175565b5050565b6000809054906101000a90046001600160a01b03166001600160a01b0316635c975abb6040518163ffffffff1660e01b815260040160206040518083038186803b1580156117fd57600080fd5b505afa158015611811573d6000803e3d6000fd5b505050506040513d602081101561182757600080fd5b50511561186e576040805162461bcd60e51b815260206004820152601060248201526f1cde5cdd195b481a5cc81c185d5cd95960821b604482015290519081900360640190fd5b6118766140f8565b6001600160a01b031663219bc76c6040518163ffffffff1660e01b815260040160206040518083038186803b1580156118ae57600080fd5b505afa1580156118c2573d6000803e3d6000fd5b505050506040513d60208110156118d857600080fd5b5051611919576040805162461bcd60e51b81526020600482018190526024820152600080516020615635833981519152604482015290519081900360640190fd5b3360008181526005602090815260408083208584526008810190925290912090916119449084610dcd565b611991576040805162461bcd60e51b81526020600482015260196024820152781a5b9d985b1a59081d5b989bdb991a5b99c81b1bd8dac81251603a1b604482015290519081900360640190fd5b6119996140f8565b6001600160a01b0316638a19c8bc6040518163ffffffff1660e01b815260040160206040518083038186803b1580156119d157600080fd5b505afa1580156119e5573d6000803e3d6000fd5b505050506040513d60208110156119fb57600080fd5b505160018201541115611a3f5760405162461bcd60e51b815260040180806020018281038252603b815260200180615531603b913960400191505060405180910390fd5b80546001808301546000868152600886016020526040812081815590920191909155611a6961465a565b6001600160a01b031663e7a49c2b33846040518363ffffffff1660e01b815260040180836001600160a01b03166001600160a01b0316815260200182815260200192505050600060405180830381600087803b158015611ac857600080fd5b505af1158015611adc573d6000803e3d6000fd5b5050604080518881526020810186905280820185905290513393507f1340f1a8f3d456a649e1a12071dfa15655e3d09252131d0f980c3b405cc8dd2e92509081900360600190a25050505050565b611b36816000806137ab565b50565b6000601073__SortedDoublyLL________________________63b32ece5890916040518263ffffffff1660e01b81526004018082815260200191505060206040518083038186803b158015611b8d57600080fd5b505af4158015611ba1573d6000803e3d6000fd5b505050506040513d6020811015611bb757600080fd5b5051905090565b6000809054906101000a90046001600160a01b03166001600160a01b0316635c975abb6040518163ffffffff1660e01b815260040160206040518083038186803b158015611c0b57600080fd5b505afa158015611c1f573d6000803e3d6000fd5b505050506040513d6020811015611c3557600080fd5b505115611c7c576040805162461bcd60e51b815260206004820152601060248201526f1cde5cdd195b481a5cc81c185d5cd95960821b604482015290519081900360640190fd5b611c846140f8565b6001600160a01b031663219bc76c6040518163ffffffff1660e01b815260040160206040518083038186803b158015611cbc57600080fd5b505afa158015611cd0573d6000803e3d6000fd5b505050506040513d6020811015611ce657600080fd5b5051611d27576040805162461bcd60e51b81526020600482018190526024820152600080516020615635833981519152604482015290519081900360640190fd5b611d2f6140f8565b6001600160a01b0316636841f2536040518163ffffffff1660e01b815260040160206040518083038186803b158015611d6757600080fd5b505afa158015611d7b573d6000803e3d6000fd5b505050506040513d6020811015611d9157600080fd5b505115611dcf5760405162461bcd60e51b81526004018080602001828103825260378152602001806155fe6037913960400191505060405180910390fd5b611dd8846146bc565b611e29576040805162461bcd60e51b815260206004820152601c60248201527f696e76616c6964207265776172644375742070657263656e7461676500000000604482015290519081900360640190fd5b611e32836146bc565b611e83576040805162461bcd60e51b815260206004820152601b60248201527f696e76616c69642066656553686172652070657263656e746167650000000000604482015290519081900360640190fd5b611e8c336128d4565b611edd576040805162461bcd60e51b815260206004820152601d60248201527f7472616e73636f646572206d7573742062652072656769737465726564000000604482015290519081900360640190fd5b33600090815260066020526040812090611ef56140f8565b6001600160a01b0316638a19c8bc6040518163ffffffff1660e01b815260040160206040518083038186803b158015611f2d57600080fd5b505afa158015611f41573d6000803e3d6000fd5b505050506040513d6020811015611f5757600080fd5b50519050611f6433610d24565b1580611f705750815481145b611fab5760405162461bcd60e51b815260040180806020018281038252604f81526020018061543f604f913960600191505060405180910390fd5b60018201869055600282018590556040805163b0138c4760e01b815260106004820152336024820152905173__SortedDoublyLL________________________9163b0138c47916044808301926020929190829003018186803b15801561201157600080fd5b505af4158015612025573d6000803e3d6000fd5b505050506040513d602081101561203b57600080fd5b50516120715733600081815260056020526040902060030154612071919061206a84600163ffffffff61436116565b87876146c5565b6040805187815260208101879052815133927f7346854431dbb3eb8e373c604abf89e90f4865b8447e1e2834d7b3e4677bf544928290030190a2505050505050565b6117ac82826000806109f6565b6000809054906101000a90046001600160a01b03166001600160a01b0316635c975abb6040518163ffffffff1660e01b815260040160206040518083038186803b15801561210d57600080fd5b505afa158015612121573d6000803e3d6000fd5b505050506040513d602081101561213757600080fd5b50511561217e576040805162461bcd60e51b815260206004820152601060248201526f1cde5cdd195b481a5cc81c185d5cd95960821b604482015290519081900360640190fd5b600054604080516b2a34b1b5b2ba213937b5b2b960a11b8152815190819003600c018120631c2d8fb360e31b8252600482015290516001600160a01b039092169163e16c7d9891602480820192602092909190829003018186803b1580156121e557600080fd5b505afa1580156121f9573d6000803e3d6000fd5b505050506040513d602081101561220f57600080fd5b50516001600160a01b0316331461226d576040805162461bcd60e51b815260206004820152601b60248201527f63616c6c6572206d757374206265205469636b657442726f6b65720000000000604482015290519081900360640190fd5b612276836128d4565b6122c7576040805162461bcd60e51b815260206004820152601d60248201527f7472616e73636f646572206d7573742062652072656769737465726564000000604482015290519081900360640190fd5b6001600160a01b0383166000908152600660209081526040808320848452600781019092529091208154831115612313576001820154600283015461231391839163ffffffff614a1616565b611438818563ffffffff614a3316565b60035481565b6001600160a01b03919091166000908152600560209081526040808320938352600890930190522080546001909101549091565b600e5481565b6117ac8282600080611bbe565b600f5481565b6000809054906101000a90046001600160a01b03166001600160a01b0316635c975abb6040518163ffffffff1660e01b815260040160206040518083038186803b1580156123c357600080fd5b505afa1580156123d7573d6000803e3d6000fd5b505050506040513d60208110156123ed57600080fd5b505115612434576040805162461bcd60e51b815260206004820152601060248201526f1cde5cdd195b481a5cc81c185d5cd95960821b604482015290519081900360640190fd5b61243c6140f8565b6001600160a01b031663219bc76c6040518163ffffffff1660e01b815260040160206040518083038186803b15801561247457600080fd5b505afa158015612488573d6000803e3d6000fd5b505050506040513d602081101561249e57600080fd5b50516124df576040805162461bcd60e51b81526020600482018190526024820152600080516020615635833981519152604482015290519081900360640190fd5b60006124e96140f8565b6001600160a01b0316638a19c8bc6040518163ffffffff1660e01b815260040160206040518083038186803b15801561252157600080fd5b505afa158015612535573d6000803e3d6000fd5b505050506040513d602081101561254b57600080fd5b5051336000908152600560205260409020600601549091508181101561257657612576338383614175565b336000908152600560205260409020600101546125d0576040805162461bcd60e51b81526020600482015260136024820152726e6f206665657320746f20776974686472617760681b604482015290519081900360640190fd5b33600090815260056020526040812060010180549190556125ef61465a565b6001600160a01b03166320283da933836040518363ffffffff1660e01b815260040180836001600160a01b03166001600160a01b0316815260200182815260200192505050600060405180830381600087803b15801561264e57600080fd5b505af1158015612662573d6000803e3d6000fd5b50506040513392507fd3719f04262b628e1d01a6ed24707f542cda51f144b5271149c7d0419436d00c9150600090a2505050565b60015481565b6000601073__SortedDoublyLL________________________63735bc2ca90916040518263ffffffff1660e01b81526004018082815260200191505060206040518083038186803b158015611b8d57600080fd5b600e5490565b6001600160a01b0316600090815260066020526040902080546001820154600283015460088401546009850154600a909501549395929491939092565b6000809054906101000a90046001600160a01b03166001600160a01b0316638da5cb5b6040518163ffffffff1660e01b815260040160206040518083038186803b15801561278057600080fd5b505afa158015612794573d6000803e3d6000fd5b505050506040513d60208110156127aa57600080fd5b50516001600160a01b03163314612808576040805162461bcd60e51b815260206004820152601f60248201527f63616c6c6572206d75737420626520436f6e74726f6c6c6572206f776e657200604482015290519081900360640190fd5b6040805163a176adaf60e01b81526010600482015260248101839052905173__SortedDoublyLL________________________9163a176adaf916044808301926000929190829003018186803b15801561286157600080fd5b505af4158015612875573d6000803e3d6000fd5b5050604080516020808252601490820152736e756d4163746976655472616e73636f6465727360601b8183015290517f9f5033568d78ae30f29f01e944f97b2216493bd19d1b46d429673acff3dcd6749350908190036060019150a150565b6001600160a01b03808216600081815260056020526040812060028101549193909291161480156129055750805415155b9392505050565b6000809054906101000a90046001600160a01b03166001600160a01b0316635c975abb6040518163ffffffff1660e01b815260040160206040518083038186803b15801561295957600080fd5b505afa15801561296d573d6000803e3d6000fd5b505050506040513d602081101561298357600080fd5b5051156129ca576040805162461bcd60e51b815260206004820152601060248201526f1cde5cdd195b481a5cc81c185d5cd95960821b604482015290519081900360640190fd5b6129d26140f8565b6001600160a01b031663219bc76c6040518163ffffffff1660e01b815260040160206040518083038186803b158015612a0a57600080fd5b505afa158015612a1e573d6000803e3d6000fd5b505050506040513d6020811015612a3457600080fd5b5051612a75576040805162461bcd60e51b81526020600482018190526024820152600080516020615635833981519152604482015290519081900360640190fd5b6000612a7f6140f8565b6001600160a01b0316638a19c8bc6040518163ffffffff1660e01b815260040160206040518083038186803b158015612ab757600080fd5b505afa158015612acb573d6000803e3d6000fd5b505050506040513d6020811015612ae157600080fd5b50513360009081526005602052604090206006015490915081811015612b0c57612b0c338383614175565b33600090815260056020526040812090612b246140f8565b6001600160a01b0316638a19c8bc6040518163ffffffff1660e01b815260040160206040518083038186803b158015612b5c57600080fd5b505afa158015612b70573d6000803e3d6000fd5b505050506040513d6020811015612b8657600080fd5b50516002808401549192508b916001600160a01b031690612ba633610e00565b6002811115612bb157fe5b1415612bd257612bc883600163ffffffff61436116565b6004850155612c81565b6001600160a01b03811615801590612bfc57508a6001600160a01b0316816001600160a01b031614155b15612c8157612c0a336128d4565b15612c465760405162461bcd60e51b815260040180806020018281038252603d81526020018061559e603d913960400191505060405180910390fd5b612c5783600163ffffffff61436116565b60048501558354612c6f90839063ffffffff61436116565b9150612c818185600001548c8c614aba565b60008211612cc05760405162461bcd60e51b81526004018080602001828103825260288152602001806155096028913960400191505060405180910390fd5b6002840180546001600160a01b0319166001600160a01b038d161790558354612ce9908d614361565b8455612cf78b838a8a614cb7565b8b15612db257612d05614ead565b6001600160a01b03166323b872dd33612d1c61465a565b8f6040518463ffffffff1660e01b815260040180846001600160a01b03166001600160a01b03168152602001836001600160a01b03166001600160a01b031681526020018281526020019350505050602060405180830381600087803b158015612d8557600080fd5b505af1158015612d99573d6000803e3d6000fd5b505050506040513d6020811015612daf57600080fd5b50505b336001600160a01b0316816001600160a01b03168c6001600160a01b03167fe5917769f276ddca9f2ee7c6b0b33e1d1e1b61008010ce622c632dd20d168a238f8860000154604051808381526020018281526020019250505060405180910390a4505050505050505050505050565b60025467ffffffffffffffff1681565b600054604080516c2937bab73239a6b0b730b3b2b960991b8152815190819003600d018120631c2d8fb360e31b8252600482015290516001600160a01b039092169163e16c7d9891602480820192602092909190829003018186803b158015612e9957600080fd5b505afa158015612ead573d6000803e3d6000fd5b505050506040513d6020811015612ec357600080fd5b50516001600160a01b03163314612f21576040805162461bcd60e51b815260206004820152601c60248201527f63616c6c6572206d75737420626520526f756e64734d616e6167657200000000604482015290519081900360640190fd5b600f54600e55565b6000809054906101000a90046001600160a01b03166001600160a01b0316638da5cb5b6040518163ffffffff1660e01b815260040160206040518083038186803b158015612f7657600080fd5b505afa158015612f8a573d6000803e3d6000fd5b505050506040513d6020811015612fa057600080fd5b50516001600160a01b03163314612ffe576040805162461bcd60e51b815260206004820152601f60248201527f63616c6c6572206d75737420626520436f6e74726f6c6c6572206f776e657200604482015290519081900360640190fd5b60048190556040805160208082526017908201527f6d61784561726e696e6773436c61696d73526f756e64730000000000000000008183015290517f9f5033568d78ae30f29f01e944f97b2216493bd19d1b46d429673acff3dcd6749181900360600190a150565b6000809054906101000a90046001600160a01b03166001600160a01b0316635c975abb6040518163ffffffff1660e01b815260040160206040518083038186803b1580156130b357600080fd5b505afa1580156130c7573d6000803e3d6000fd5b505050506040513d60208110156130dd57600080fd5b505115613124576040805162461bcd60e51b815260206004820152601060248201526f1cde5cdd195b481a5cc81c185d5cd95960821b604482015290519081900360640190fd5b61312c6140f8565b6001600160a01b031663219bc76c6040518163ffffffff1660e01b815260040160206040518083038186803b15801561316457600080fd5b505afa158015613178573d6000803e3d6000fd5b505050506040513d602081101561318e57600080fd5b50516131cf576040805162461bcd60e51b81526020600482018190526024820152600080516020615635833981519152604482015290519081900360640190fd5b60006131d96140f8565b6001600160a01b0316638a19c8bc6040518163ffffffff1660e01b815260040160206040518083038186803b15801561321157600080fd5b505afa158015613225573d6000803e3d6000fd5b505050506040513d602081101561323b57600080fd5b5051336000908152600560205260409020600601549091508181101561326657613266338383614175565b600261327133610e00565b600281111561327c57fe5b14156132c7576040805162461bcd60e51b815260206004820152601560248201527418d85b1b195c881b5d5cdd08189948189bdb991959605a1b604482015290519081900360640190fd5b611438338686866143bb565b6000809054906101000a90046001600160a01b03166001600160a01b0316635c975abb6040518163ffffffff1660e01b815260040160206040518083038186803b15801561332057600080fd5b505afa158015613334573d6000803e3d6000fd5b505050506040513d602081101561334a57600080fd5b505115613391576040805162461bcd60e51b815260206004820152601060248201526f1cde5cdd195b481a5cc81c185d5cd95960821b604482015290519081900360640190fd5b6133996140f8565b6001600160a01b031663219bc76c6040518163ffffffff1660e01b815260040160206040518083038186803b1580156133d157600080fd5b505afa1580156133e5573d6000803e3d6000fd5b505050506040513d60208110156133fb57600080fd5b505161343c576040805162461bcd60e51b81526020600482018190526024820152600080516020615635833981519152604482015290519081900360640190fd5b60006134466140f8565b6001600160a01b0316638a19c8bc6040518163ffffffff1660e01b815260040160206040518083038186803b15801561347e57600080fd5b505afa158015613492573d6000803e3d6000fd5b505050506040513d60208110156134a857600080fd5b505190506134b533610d24565b6134f05760405162461bcd60e51b81526004018080602001828103825260238152602001806155db6023913960400191505060405180910390fd5b3360009081526006602052604090205481141561353e5760405162461bcd60e51b81526004018080602001828103825260368152602001806154b26036913960400191505060405180910390fd5b336000908152600660209081526040808320848452600781019092529091208282556001820154600283015461357b91839163ffffffff614a1616565b6008820154838110156135ad5760008181526007840160205260409020600201546135ad90839063ffffffff614f1616565b60006135b761465a565b6001600160a01b0316637dbedad58460020154600e546040518363ffffffff1660e01b81526004018083815260200182815260200192505050602060405180830381600087803b15801561360a57600080fd5b505af115801561361e573d6000803e3d6000fd5b505050506040513d602081101561363457600080fd5b505190506136453382878a8a614f25565b60408051828152905133917f619caafabdd75649b302ba8419e48cccf64f37f1983ac4727cfb38b57703ffc9919081900360200190a250505050505050565b6000601073__SortedDoublyLL________________________632ebb2fed90916040518263ffffffff1660e01b81526004018082815260200191505060206040518083038186803b158015611b8d57600080fd5b60006136e3826128d4565b156136f057506001610dc8565b506000919050565b6000546001600160a01b03163314613757576040805162461bcd60e51b815260206004820152601960248201527f63616c6c6572206d75737420626520436f6e74726f6c6c657200000000000000604482015290519081900360640190fd5b600080546001600160a01b0383166001600160a01b0319909116811790915560408051918252517f4ff638452bbf33c012645d18ae6f05515ff5f2d1dfb0cece8cbf018c60903f709181900360200190a150565b6000809054906101000a90046001600160a01b03166001600160a01b0316635c975abb6040518163ffffffff1660e01b815260040160206040518083038186803b1580156137f857600080fd5b505afa15801561380c573d6000803e3d6000fd5b505050506040513d602081101561382257600080fd5b505115613869576040805162461bcd60e51b815260206004820152601060248201526f1cde5cdd195b481a5cc81c185d5cd95960821b604482015290519081900360640190fd5b6138716140f8565b6001600160a01b031663219bc76c6040518163ffffffff1660e01b815260040160206040518083038186803b1580156138a957600080fd5b505afa1580156138bd573d6000803e3d6000fd5b505050506040513d60208110156138d357600080fd5b5051613914576040805162461bcd60e51b81526020600482018190526024820152600080516020615635833981519152604482015290519081900360640190fd5b600061391e6140f8565b6001600160a01b0316638a19c8bc6040518163ffffffff1660e01b815260040160206040518083038186803b15801561395657600080fd5b505afa15801561396a573d6000803e3d6000fd5b505050506040513d602081101561398057600080fd5b505133600090815260056020526040902060060154909150818110156139ab576139ab338383614175565b60016139b633610e00565b60028111156139c157fe5b14613a0b576040805162461bcd60e51b815260206004820152601560248201527418d85b1b195c881b5d5cdd08189948189bdb991959605a1b604482015290519081900360640190fd5b33600090815260056020526040902085613a565760405162461bcd60e51b815260040180806020018281038252602481526020018061541b6024913960400191505060405180910390fd5b8054861115613a965760405162461bcd60e51b815260040180806020018281038252602481526020018061548e6024913960400191505060405180910390fd5b60028101546001600160a01b03166000613aae6140f8565b6001600160a01b0316638a19c8bc6040518163ffffffff1660e01b815260040160206040518083038186803b158015613ae657600080fd5b505afa158015613afa573d6000803e3d6000fd5b505050506040513d6020811015613b1057600080fd5b5051600254909150600090613b3690839067ffffffffffffffff1663ffffffff61436116565b60078501546040805180820182528c81526020808201858152600085815260088b0190925292902090518155905160019182015591925090613b7f90829063ffffffff61436116565b60078601558454613b96908b63ffffffff6145fd16565b808655613c4d576002850180546001600160a01b031916905560006004808701919091556040805163b0138c4760e01b81526010928101929092523360248301525173__SortedDoublyLL________________________9163b0138c47916044808301926020929190829003018186803b158015613c1357600080fd5b505af4158015613c27573d6000803e3d6000fd5b505050506040513d6020811015613c3d57600080fd5b505115613c4d57613c4d336144fa565b613c59848b8b8b614aba565b60408051828152602081018c9052808201849052905133916001600160a01b038716917f2d5d98d189bee5496a08db2a5948cb7e5e786f09d17d0c3f228eb41776c24a069181900360600190a350505050505050505050565b600080613cbd6140f8565b6001600160a01b0316638a19c8bc6040518163ffffffff1660e01b815260040160206040518083038186803b158015613cf557600080fd5b505afa158015613d09573d6000803e3d6000fd5b505050506040513d6020811015613d1f57600080fd5b505190508281811115613d2f5750805b6001600160a01b0385166000908152600560205260409020805460068201546001015b868111613dc55760028301546001600160a01b0390811660008181526006602090815260408083208684526007019091529020918a1614613d9282614f67565b15613dbb57613db8613dab83868463ffffffff614f7016565b859063ffffffff61436116565b93505b5050600101613d52565b509695505050505050565b6001600160a01b031660009081526005602052604090206003015490565b6001600160a01b03908116600090815260056020526040902080546001820154600283015460038401546004850154600686015460079096015494979396929092169490939192909190565b6117ac828260008060008061290c565b611b3681600080613066565b6000809054906101000a90046001600160a01b03166001600160a01b0316638da5cb5b6040518163ffffffff1660e01b815260040160206040518083038186803b158015613ea357600080fd5b505afa158015613eb7573d6000803e3d6000fd5b505050506040513d6020811015613ecd57600080fd5b50516001600160a01b03163314613f2b576040805162461bcd60e51b815260206004820152601f60248201527f63616c6c6572206d75737420626520436f6e74726f6c6c6572206f776e657200604482015290519081900360640190fd5b6002805467ffffffffffffffff191667ffffffffffffffff8316179055604080516020808252600f908201526e1d5b989bdb991a5b99d4195c9a5bd9608a1b8183015290517f9f5033568d78ae30f29f01e944f97b2216493bd19d1b46d429673acff3dcd674916060908290030190a150565b600080613fa96140f8565b6001600160a01b0316638a19c8bc6040518163ffffffff1660e01b815260040160206040518083038186803b158015613fe157600080fd5b505afa158015613ff5573d6000803e3d6000fd5b505050506040513d602081101561400b57600080fd5b50519050828181111561401b5750805b6001600160a01b03851660009081526005602052604090206001808201548254600684015491929091015b8781116140dc5760028401546001600160a01b03166000908152600660209081526040808320848452600701909152902061408081614f67565b156140d35760028501546001600160a01b038b81169116146140b96140ac83868463ffffffff614fc416565b869063ffffffff61436116565b94506140cf613dab83868463ffffffff614f7016565b9350505b50600101614046565b5090979650505050505050565b6000546001600160a01b031681565b60008054604080516c2937bab73239a6b0b730b3b2b960991b8152815190819003600d018120631c2d8fb360e31b8252600482015290516001600160a01b039092169163e16c7d9891602480820192602092909190829003018186803b15801561416157600080fd5b505afa158015611ba1573d6000803e3d6000fd5b6001600160a01b03831660009081526005602052604081209061419f83600163ffffffff61436116565b82546001840154600285015492935090916001600160a01b0316156142c7576004546141d1878763ffffffff6145fd16565b1115614224576040805162461bcd60e51b815260206004820181905260248201527f746f6f206d616e7920726f756e647320746f20636c61696d207468726f756768604482015290519081900360640190fd5b825b8681116142c55760028501546001600160a01b03166000908152600660209081526040808320848452600701909152902061426081614f67565b156142bc576002860154600090819061429090849088906001600160a01b038f811691161463ffffffff614fee16565b90925090506142a5858363ffffffff61436116565b94506142b7868263ffffffff61436116565b955050505b50600101614226565b505b600284015484546001600160a01b03808a169216907fd7eab0765b772ea6ea859d5633baf737502198012e930f257f90013d9b2110949061430f90869063ffffffff6145fd16565b600188015461432590869063ffffffff6145fd16565b604080519283526020830191909152818101889052606082018b9052519081900360800190a36006840195909555825550600101919091555050565b600082820183811015612905576040805162461bcd60e51b815260206004820152601b60248201527f536166654d6174683a206164646974696f6e206f766572666c6f770000000000604482015290519081900360640190fd5b6001600160a01b0384166000908152600560209081526040808320868452600881019092529091206143ed8686610dcd565b61443a576040805162461bcd60e51b81526020600482015260196024820152781a5b9d985b1a59081d5b989bdb991a5b99c81b1bd8dac81251603a1b604482015290519081900360640190fd5b8054825461444e908263ffffffff61436116565b835560008681526008840160205260408120818155600101556002830154614481906001600160a01b0316828787614cb7565b6002830154604080518881526020810184905281516001600160a01b03808c169416927f9f5b64cc71e1e26ff178caaa7877a04d8ce66fde989251870e80e6fbee690c17928290030190a350505050505050565b6000612905620f42406144ee858563ffffffff61513a16565b9063ffffffff61519316565b60408051635d35e00760e01b8152601060048201526001600160a01b0383166024820152905173__SortedDoublyLL________________________91635d35e007916044808301926000929190829003018186803b15801561455b57600080fd5b505af415801561456f573d6000803e3d6000fd5b5050505061458e61457f82613dd0565b600f549063ffffffff6145fd16565b600f5560006145a06001610c6b6140f8565b6001600160a01b038316600081815260066020908152604091829020600a018490558151848152915193945091927ffee3e693fc72d0a0a673805f3e606c551f4c677b9072444b90dd2d0406bc995c929181900390910190a25050565b600082821115614654576040805162461bcd60e51b815260206004820152601e60248201527f536166654d6174683a207375627472616374696f6e206f766572666c6f770000604482015290519081900360640190fd5b50900390565b60008054604080516526b4b73a32b960d11b81528151908190036006018120631c2d8fb360e31b8252600482015290516001600160a01b039092169163e16c7d9891602480820192602092909190829003018186803b15801561416157600080fd5b620f4240101590565b600f54604080516304aa129960e41b815260106004820152905173__SortedDoublyLL________________________91634aa12990916024808301926020929190829003018186803b15801561471a57600080fd5b505af415801561472e573d6000803e3d6000fd5b505050506040513d602081101561474457600080fd5b5051156148d4576000601073__SortedDoublyLL________________________6372e40b2690916040518263ffffffff1660e01b81526004018082815260200191505060206040518083038186803b15801561479f57600080fd5b505af41580156147b3573d6000803e3d6000fd5b505050506040513d60208110156147c957600080fd5b5051905060006147d882613dd0565b90508087116147e957505050611438565b60408051635d35e00760e01b8152601060048201526001600160a01b0384166024820152905173__SortedDoublyLL________________________91635d35e007916044808301926000929190829003018186803b15801561484a57600080fd5b505af415801561485e573d6000803e3d6000fd5b5050506001600160a01b0383166000908152600660205260409020600a0187905550614890838263ffffffff6145fd16565b6040805188815290519194506001600160a01b038416917ffee3e693fc72d0a0a673805f3e606c551f4c677b9072444b90dd2d0406bc995c9181900360200190a250505b604080516327dd54d360e11b8152601060048201526001600160a01b03808916602483015260448201889052808616606483015284166084820152905173__SortedDoublyLL________________________91634fbaa9a69160a4808301926000929190829003018186803b15801561494c57600080fd5b505af4158015614960573d6000803e3d6000fd5b50505050614977858261436190919063ffffffff16565b6001600160a01b03871660009081526006602090815260408083206008810189905560098101899055600019600a82015588845260078101909252909120919250906149c9908763ffffffff614f1616565b600f8290556040805186815290516001600160a01b038916917f65d72d782835d64c3287844a829608d5abdc7e864cc9affe96d910ab3db665e9919081900360200190a250505050505050565b60048301919091556005820155600801805460ff19166001179055565b600882015460ff1615614a9c576000614a508284600501546144d5565b6001840154909150614a68908263ffffffff61436116565b6001840155614a91614a80838363ffffffff6145fd16565b60078501549063ffffffff61436116565b6007840155506117ac565b6001820154614ab1908263ffffffff61436116565b60018301555050565b6040805163b0138c4760e01b8152601060048201526001600160a01b0386166024820152905173__SortedDoublyLL________________________9163b0138c47916044808301926020929190829003018186803b158015614b1b57600080fd5b505af4158015614b2f573d6000803e3d6000fd5b505050506040513d6020811015614b4557600080fd5b505115614c66576000614b6784614b5b87613dd0565b9063ffffffff6145fd16565b90506000614b786001610c6b6140f8565b60408051631c11bf7f60e11b8152601060048201526001600160a01b03808a16602483015260448201869052808816606483015286166084820152905191925073__SortedDoublyLL________________________916338237efe9160a480820192600092909190829003018186803b158015614bf457600080fd5b505af4158015614c08573d6000803e3d6000fd5b5050600f54614c20925090508663ffffffff6145fd16565b600f556001600160a01b03861660009081526006602090815260408083206008810185905584845260078101909252909120614c62908463ffffffff614f1616565b5050505b6001600160a01b038416600090815260056020526040902060030154614c92908463ffffffff6145fd16565b6001600160a01b03909416600090815260056020526040902060030193909355505050565b614cc0846128d4565b15614e81576000614ce084614cd487613dd0565b9063ffffffff61436116565b90506000614cf16001610c6b6140f8565b6040805163b0138c4760e01b8152601060048201526001600160a01b0389166024820152905191925073__SortedDoublyLL________________________9163b0138c4791604480820192602092909190829003018186803b158015614d5657600080fd5b505af4158015614d6a573d6000803e3d6000fd5b505050506040513d6020811015614d8057600080fd5b505115614e715760408051631c11bf7f60e11b8152601060048201526001600160a01b03808916602483015260448201859052808716606483015285166084820152905173__SortedDoublyLL________________________916338237efe9160a4808301926000929190829003018186803b158015614dff57600080fd5b505af4158015614e13573d6000803e3d6000fd5b5050600f54614e2b925090508663ffffffff61436116565b600f556001600160a01b038616600090815260066020908152604080832084845260078101909252909120614e66908463ffffffff614f1616565b600801819055614e7e565b614e7e86838387876146c5565b50505b6001600160a01b038416600090815260056020526040902060030154614c92908463ffffffff61436116565b60008054604080516c2634bb32b832b2b92a37b5b2b760991b8152815190819003600d018120631c2d8fb360e31b8252600482015290516001600160a01b039092169163e16c7d9891602480820192602092909190829003018186803b15801561416157600080fd5b60028201819055600390910155565b6001600160a01b03851660009081526006602090815260408083208684526007019091529020614f5b818663ffffffff6151fd16565b610d1c86868585614cb7565b60030154151590565b60088301546000908190819060ff1615614f9957614f8f868686615277565b9092509050614faa565b614fa48686866152c4565b90925090505b614fba828263ffffffff61436116565b9695505050505050565b60088301546000908190819060ff1615614fe357614f8f86868661532c565b614fa4868686615374565b6008830154600090819081908190819081908190819060ff1615615099576150178b8b8b61532c565b909450925061502c848463ffffffff61436116565b95506150398b8b8b615277565b909250905061504e828263ffffffff61436116565b60018c0154909550615066908563ffffffff6145fd16565b60018c01558a5461507d908363ffffffff6145fd16565b8b55881561509457600060078c0181905560068c01555b61510d565b6150a48b8b8b615374565b90945092506150b9848463ffffffff61436116565b95506150c68b8b8b6152c4565b90925090506150db828263ffffffff61436116565b60018c01549095506150f3908763ffffffff6145fd16565b60018c01558a5461510a908663ffffffff6145fd16565b8b555b60038b0154615122908b63ffffffff6145fd16565b60038c0155509395509193505050505b935093915050565b60008261514957506000610dfa565b8282028284828161515657fe5b04146129055760405162461bcd60e51b81526004018080602001828103825260218152602001806154e86021913960400191505060405180910390fd5b60008082116151e9576040805162461bcd60e51b815260206004820152601a60248201527f536166654d6174683a206469766973696f6e206279207a65726f000000000000604482015290519081900360640190fd5b60008284816151f457fe5b04949350505050565b600882015460ff161561525f57600061521a8284600401546144d5565b905061523d61522f838363ffffffff6145fd16565b84549063ffffffff61436116565b83556006830154615254908263ffffffff61436116565b6006840155506117ac565b8154615271908263ffffffff61436116565b82555050565b60008060008086600301541161528e5760006152a1565b6152a186600001548688600301546153d6565b9050836152b0578060006152b7565b8086600601545b9250925050935093915050565b600383015460009081908190819015615310576152e9876000015488600401546144d5565b875490925061530d90615302908463ffffffff6145fd16565b8789600301546153d6565b90505b841561531f5792509050615132565b9250600091506151329050565b600080600080866003015411615343576000615356565b61535686600101548688600301546153d6565b905083615365578060006152b7565b60079095015494959350505050565b60038301546000908190819081901561531057600061539b886001015489600501546144d5565b60018901549091506153b3908263ffffffff6145fd16565b92506153c481888a600301546153d6565b915050841561531f5792509050615132565b60006153f9620f42406144ee6153ec8686615401565b879063ffffffff61513a16565b949350505050565b6000612905826144ee85620f424063ffffffff61513a1656fe756e626f6e6420616d6f756e74206d7573742062652067726561746572207468616e203063616c6c65722063616e277420626520616374697665206f72206d757374206861766520616c72656164792063616c6c65642072657761726420666f72207468652063757272656e7420726f756e64616d6f756e742069732067726561746572207468616e20626f6e64656420616d6f756e7463616c6c65722068617320616c72656164792063616c6c65642072657761726420666f72207468652063757272656e7420726f756e64536166654d6174683a206d756c7469706c69636174696f6e206f766572666c6f7764656c65676174696f6e20616d6f756e74206d7573742062652067726561746572207468616e2030776974686472617720726f756e64206d757374206265206265666f7265206f7220657175616c20746f207468652063757272656e7420726f756e64656e6420726f756e64206d757374206265206265666f7265206f7220657175616c20746f2063757272656e7420726f756e6472656769737465726564207472616e73636f646572732063616e27742064656c656761746520746f7761726473206f746865722061646472657373657363616c6c6572206d75737420626520616e20616374697665207472616e73636f64657263616e277420757064617465207472616e73636f64657220706172616d732c2063757272656e7420726f756e64206973206c6f636b656463757272656e7420726f756e64206973206e6f7420696e697469616c697a6564656e6420726f756e64206d757374206265206166746572206c61737420636c61696d20726f756e64a265627a7a72315820d9821be74a955e237a3670494eb14db1a4aa8d8ccebfe2f0d394d4528ce7303764736f6c634300050b0032",
    "source": "pragma solidity ^0.5.11;\n\nimport \"../ManagerProxyTarget.sol\";\nimport \"./IBondingManager.sol\";\nimport \"../libraries/SortedDoublyLL.sol\";\nimport \"../libraries/MathUtils.sol\";\nimport \"./libraries/EarningsPool.sol\";\nimport \"../token/ILivepeerToken.sol\";\nimport \"../token/IMinter.sol\";\nimport \"../rounds/IRoundsManager.sol\";\n\nimport \"openzeppelin-solidity/contracts/math/SafeMath.sol\";\n\n\n/**\n * @title BondingManager\n * @notice Manages bonding, transcoder and rewards/fee accounting related operations of the Livepeer protocol\n */\ncontract BondingManager is ManagerProxyTarget, IBondingManager {\n    using SafeMath for uint256;\n    using SortedDoublyLL for SortedDoublyLL.Data;\n    using EarningsPool for EarningsPool.Data;\n\n    // Constants\n    // Occurances are replaced at compile time\n    // and computed to a single value if possible by the optimizer\n    uint256 constant MAX_FUTURE_ROUND = 2**256 - 1;\n\n    // Time between unbonding and possible withdrawl in rounds\n    uint64 public unbondingPeriod;\n    // DEPRECATED - DO NOT USE\n    uint256 public numActiveTranscodersDEPRECATED;\n    // Max number of rounds that a caller can claim earnings for at once\n    uint256 public maxEarningsClaimsRounds;\n\n    // Represents a transcoder's current state\n    struct Transcoder {\n        uint256 lastRewardRound;                                        // Last round that the transcoder called reward\n        uint256 rewardCut;                                              // % of reward paid to transcoder by a delegator\n        uint256 feeShare;                                               // % of fees paid to delegators by transcoder\n        uint256 pricePerSegmentDEPRECATED;                              // DEPRECATED - DO NOT USE\n        uint256 pendingRewardCutDEPRECATED;                             // DEPRECATED - DO NOT USE\n        uint256 pendingFeeShareDEPRECATED;                              // DEPRECATED - DO NOT USE\n        uint256 pendingPricePerSegmentDEPRECATED;                       // DEPRECATED - DO NOT USE\n        mapping (uint256 => EarningsPool.Data) earningsPoolPerRound;    // Mapping of round => earnings pool for the round\n        uint256 lastActiveStakeUpdateRound;                             // Round for which the stake was last updated while the transcoder is active\n        uint256 activationRound;                                        // Round in which the transcoder became active - 0 if inactive\n        uint256 deactivationRound;                                      // Round in which the transcoder will become inactive\n    }\n\n    // The various states a transcoder can be in\n    enum TranscoderStatus { NotRegistered, Registered }\n\n    // Represents a delegator's current state\n    struct Delegator {\n        uint256 bondedAmount;                    // The amount of bonded tokens\n        uint256 fees;                            // The amount of fees collected\n        address delegateAddress;                 // The address delegated to\n        uint256 delegatedAmount;                 // The amount of tokens delegated to the delegator\n        uint256 startRound;                      // The round the delegator transitions to bonded phase and is delegated to someone\n        uint256 withdrawRoundDEPRECATED;         // DEPRECATED - DO NOT USE\n        uint256 lastClaimRound;                  // The last round during which the delegator claimed its earnings\n        uint256 nextUnbondingLockId;             // ID for the next unbonding lock created\n        mapping (uint256 => UnbondingLock) unbondingLocks; // Mapping of unbonding lock ID => unbonding lock\n    }\n\n    // The various states a delegator can be in\n    enum DelegatorStatus { Pending, Bonded, Unbonded }\n\n    // Represents an amount of tokens that are being unbonded\n    struct UnbondingLock {\n        uint256 amount;              // Amount of tokens being unbonded\n        uint256 withdrawRound;       // Round at which unbonding period is over and tokens can be withdrawn\n    }\n\n    // Keep track of the known transcoders and delegators\n    mapping (address => Delegator) private delegators;\n    mapping (address => Transcoder) private transcoders;\n\n    // DEPRECATED - DO NOT USE\n    // The function getTotalBonded() no longer uses this variable\n    // and instead calculates the total bonded value separately\n    uint256 private totalBondedDEPRECATED;\n\n    // DEPRECATED - DO NOT USE\n    SortedDoublyLL.Data private transcoderPoolDEPRECATED;\n\n    // DEPRECATED - DO NOT USE\n    struct ActiveTranscoderSetDEPRECATED {\n        address[] transcoders;\n        mapping (address => bool) isActive;\n        uint256 totalStake;\n    }\n\n    // DEPRECATED - DO NOT USE\n    mapping (uint256 => ActiveTranscoderSetDEPRECATED) public activeTranscoderSetDEPRECATED;\n\n    // The total active stake (sum of the stake of active set members) for the current round\n    uint256 public currentRoundTotalActiveStake;\n    // The total active stake (sum of the stake of active set members) for the next round\n    uint256 public nextRoundTotalActiveStake;\n\n    // The transcoder pool is used to keep track of the transcoders that are eligible for activation.\n    // The pool keeps track of the pending active set in round N and the start of round N + 1 transcoders\n    // in the pool are locked into the active set for round N + 1\n    SortedDoublyLL.Data private transcoderPoolV2;\n\n    // Check if sender is TicketBroker\n    modifier onlyTicketBroker() {\n        require(\n            msg.sender == controller.getContract(keccak256(\"TicketBroker\")),\n            \"caller must be TicketBroker\"\n        );\n        _;\n    }\n\n    // Check if sender is RoundsManager\n    modifier onlyRoundsManager() {\n        require(\n            msg.sender == controller.getContract(keccak256(\"RoundsManager\")),\n            \"caller must be RoundsManager\"\n        );\n        _;\n    }\n\n    // Check if sender is Verifier\n    modifier onlyVerifier() {\n        require(msg.sender == controller.getContract(keccak256(\"Verifier\")), \"caller must be Verifier\");\n        _;\n    }\n\n    // Check if current round is initialized\n    modifier currentRoundInitialized() {\n        require(roundsManager().currentRoundInitialized(), \"current round is not initialized\");\n        _;\n    }\n\n    // Automatically claim earnings from lastClaimRound through the current round\n    modifier autoClaimEarnings() {\n        uint256 currentRound = roundsManager().currentRound();\n        uint256 lastClaimRound = delegators[msg.sender].lastClaimRound;\n        if (lastClaimRound < currentRound) {\n            updateDelegatorWithEarnings(msg.sender, currentRound, lastClaimRound);\n        }\n        _;\n    }\n\n    /**\n     * @notice BondingManager constructor. Only invokes constructor of base Manager contract with provided Controller address\n     * @dev This constructor will not initialize any state variables besides `controller`. The following setter functions\n     * should be used to initialize state variables post-deployment:\n     * - setUnbondingPeriod()\n     * - setNumActiveTranscoders()\n     * - setMaxEarningsClaimsRounds()\n     * @param _controller Address of Controller that this contract will be registered with\n     */\n    constructor(address _controller) public Manager(_controller) {}\n\n    /**\n     * @notice Set unbonding period. Only callable by Controller owner\n     * @param _unbondingPeriod Rounds between unbonding and possible withdrawal\n     */\n    function setUnbondingPeriod(uint64 _unbondingPeriod) external onlyControllerOwner {\n        unbondingPeriod = _unbondingPeriod;\n\n        emit ParameterUpdate(\"unbondingPeriod\");\n    }\n\n    /**\n     * @notice Set maximum number of active transcoders. Only callable by Controller owner\n     * @param _numActiveTranscoders Number of active transcoders\n     */\n    function setNumActiveTranscoders(uint256 _numActiveTranscoders) external onlyControllerOwner {\n        transcoderPoolV2.setMaxSize(_numActiveTranscoders);\n\n        emit ParameterUpdate(\"numActiveTranscoders\");\n    }\n\n    /**\n     * @notice Set max number of rounds a caller can claim earnings for at once. Only callable by Controller owner\n     * @param _maxEarningsClaimsRounds Max number of rounds a caller can claim earnings for at once\n     */\n    function setMaxEarningsClaimsRounds(uint256 _maxEarningsClaimsRounds) external onlyControllerOwner {\n        maxEarningsClaimsRounds = _maxEarningsClaimsRounds;\n\n        emit ParameterUpdate(\"maxEarningsClaimsRounds\");\n    }\n\n    /**\n     * @notice Sets commission rates as a transcoder and if the caller is not in the transcoder pool tries to add it\n     * @dev Percentages are represented as numerators of fractions over MathUtils.PERC_DIVISOR\n     * @param _rewardCut % of reward paid to transcoder by a delegator\n     * @param _feeShare % of fees paid to delegators by a transcoder\n     */\n    function transcoder(uint256 _rewardCut, uint256 _feeShare) external {\n        transcoderWithHint(_rewardCut, _feeShare, address(0), address(0));\n    }\n\n    /**\n     * @notice Delegate stake towards a specific address\n     * @param _amount The amount of tokens to stake\n     * @param _to The address of the transcoder to stake towards\n     */\n    function bond(uint256 _amount, address _to) external {\n        bondWithHint(\n            _amount,\n            _to,\n            address(0),\n            address(0),\n            address(0),\n            address(0)\n        );\n    }\n\n    /**\n     * @notice Unbond an amount of the delegator's bonded stake\n     * @param _amount Amount of tokens to unbond\n     */\n    function unbond(uint256 _amount) external {\n        unbondWithHint(_amount, address(0), address(0));\n    }\n\n    /**\n     * @notice Rebond tokens for an unbonding lock to a delegator's current delegate while a delegator is in the Bonded or Pending status\n     * @param _unbondingLockId ID of unbonding lock to rebond with\n     */\n    function rebond(uint256 _unbondingLockId) external {\n        rebondWithHint(_unbondingLockId, address(0), address(0));\n    }\n\n    /**\n     * @notice Rebond tokens for an unbonding lock to a delegate while a delegator is in the Unbonded status\n     * @param _to Address of delegate\n     * @param _unbondingLockId ID of unbonding lock to rebond with\n     */\n    function rebondFromUnbonded(address _to, uint256 _unbondingLockId) external {\n        rebondFromUnbondedWithHint(_to, _unbondingLockId, address(0), address(0));\n    }\n\n    /**\n     * @notice Withdraws tokens for an unbonding lock that has existed through an unbonding period\n     * @param _unbondingLockId ID of unbonding lock to withdraw with\n     */\n    function withdrawStake(uint256 _unbondingLockId)\n        external\n        whenSystemNotPaused\n        currentRoundInitialized\n    {\n        Delegator storage del = delegators[msg.sender];\n        UnbondingLock storage lock = del.unbondingLocks[_unbondingLockId];\n\n        require(isValidUnbondingLock(msg.sender, _unbondingLockId), \"invalid unbonding lock ID\");\n        require(lock.withdrawRound <= roundsManager().currentRound(), \"withdraw round must be before or equal to the current round\");\n\n        uint256 amount = lock.amount;\n        uint256 withdrawRound = lock.withdrawRound;\n        // Delete unbonding lock\n        delete del.unbondingLocks[_unbondingLockId];\n\n        // Tell Minter to transfer stake (LPT) to the delegator\n        minter().trustedTransferTokens(msg.sender, amount);\n\n        emit WithdrawStake(msg.sender, _unbondingLockId, amount, withdrawRound);\n    }\n\n    /**\n     * @notice Withdraws fees to the caller\n     */\n    function withdrawFees()\n        external\n        whenSystemNotPaused\n        currentRoundInitialized\n        autoClaimEarnings\n    {\n        require(delegators[msg.sender].fees > 0, \"no fees to withdraw\");\n\n        uint256 amount = delegators[msg.sender].fees;\n        delegators[msg.sender].fees = 0;\n\n        // Tell Minter to transfer fees (ETH) to the delegator\n        minter().trustedWithdrawETH(msg.sender, amount);\n\n        emit WithdrawFees(msg.sender);\n    }\n\n    /**\n     * @notice Mint token rewards for an active transcoder and its delegators\n     */\n    function reward() external {\n        rewardWithHint(address(0), address(0));\n    }\n\n    /**\n     * @notice Update transcoder's fee pool. Only callable by the TicketBroker\n     * @param _transcoder Transcoder address\n     * @param _fees Fees to be added to the fee pool\n     */\n    function updateTranscoderWithFees(\n        address _transcoder,\n        uint256 _fees,\n        uint256 _round\n    )\n        external\n        whenSystemNotPaused\n        onlyTicketBroker\n    {\n        require(isRegisteredTranscoder(_transcoder), \"transcoder must be registered\");\n\n        Transcoder storage t = transcoders[_transcoder];\n\n        EarningsPool.Data storage earningsPool = t.earningsPoolPerRound[_round];\n\n        // if transcoder hasn't called 'reward()' for '_round' its 'transcoderFeeShare' and 'transcoderRewardCut'\n        // on the 'EarningsPool' for '_round' would not be initialized and the fee distribution wouldn't happen as expected\n        if (_round > t.lastRewardRound) {\n            earningsPool.setCommission(\n                t.rewardCut,\n                t.feeShare\n            );\n        }\n\n        // Add fees to fee pool\n        earningsPool.addToFeePool(_fees);\n    }\n\n    /**\n     * @notice Slash a transcoder. Only callable by the Verifier\n     * @param _transcoder Transcoder address\n     * @param _finder Finder that proved a transcoder violated a slashing condition. Null address if there is no finder\n     * @param _slashAmount Percentage of transcoder bond to be slashed\n     * @param _finderFee Percentage of penalty awarded to finder. Zero if there is no finder\n     */\n    function slashTranscoder(\n        address _transcoder,\n        address _finder,\n        uint256 _slashAmount,\n        uint256 _finderFee\n    )\n        external\n        whenSystemNotPaused\n        onlyVerifier\n    {\n        Delegator storage del = delegators[_transcoder];\n\n        if (del.bondedAmount > 0) {\n            uint256 penalty = MathUtils.percOf(delegators[_transcoder].bondedAmount, _slashAmount);\n\n            // If active transcoder, resign it\n            if (transcoderPoolV2.contains(_transcoder)) {\n                resignTranscoder(_transcoder);\n            }\n\n            // Decrease bonded stake\n            del.bondedAmount = del.bondedAmount.sub(penalty);\n\n            // If still bonded decrease delegate's delegated amount\n            if (delegatorStatus(_transcoder) == DelegatorStatus.Bonded) {\n                delegators[del.delegateAddress].delegatedAmount = delegators[del.delegateAddress].delegatedAmount.sub(penalty);\n            }\n\n            // Account for penalty\n            uint256 burnAmount = penalty;\n\n            // Award finder fee if there is a finder address\n            if (_finder != address(0)) {\n                uint256 finderAmount = MathUtils.percOf(penalty, _finderFee);\n                minter().trustedTransferTokens(_finder, finderAmount);\n\n                // Minter burns the slashed funds - finder reward\n                minter().trustedBurnTokens(burnAmount.sub(finderAmount));\n\n                emit TranscoderSlashed(_transcoder, _finder, penalty, finderAmount);\n            } else {\n                // Minter burns the slashed funds\n                minter().trustedBurnTokens(burnAmount);\n\n                emit TranscoderSlashed(_transcoder, address(0), penalty, 0);\n            }\n        } else {\n            emit TranscoderSlashed(_transcoder, _finder, 0, 0);\n        }\n    }\n\n    /**\n     * @notice Claim token pools shares for a delegator from its lastClaimRound through the end round\n     * @param _endRound The last round for which to claim token pools shares for a delegator\n     */\n    function claimEarnings(uint256 _endRound) external whenSystemNotPaused currentRoundInitialized {\n        uint256 lastClaimRound = delegators[msg.sender].lastClaimRound;\n        require(lastClaimRound < _endRound, \"end round must be after last claim round\");\n        require(_endRound <= roundsManager().currentRound(), \"end round must be before or equal to current round\");\n\n        updateDelegatorWithEarnings(msg.sender, _endRound, lastClaimRound);\n    }\n\n    /**\n     * @notice Called during round initialization to set the total active stake for the round. Only callable by the RoundsManager\n     */\n    function setCurrentRoundTotalActiveStake() external onlyRoundsManager {\n        currentRoundTotalActiveStake = nextRoundTotalActiveStake;\n    }\n\n    /**\n     * @notice Sets commission rates as a transcoder and if the caller is not in the transcoder pool tries to add it using an optional list hint\n     * @dev Percentages are represented as numerators of fractions over MathUtils.PERC_DIVISOR. If the caller is going to be added to the pool, the\n     * caller can provide an optional hint for the insertion position in the pool via the `_newPosPrev` and `_newPosNext` params. A linear search will\n     * be executed starting at the hint to find the correct position - in the best case, the hint is the correct position so no search is executed.\n     * See SortedDoublyLL.sol for details on list hints\n     * @param _rewardCut % of reward paid to transcoder by a delegator\n     * @param _feeShare % of fees paid to delegators by a transcoder\n     * @param _newPosPrev Address of previous transcoder in pool if the caller joins the pool\n     * @param _newPosNext Address of next transcoder in pool if the caller joins the pool\n     */\n    function transcoderWithHint(uint256 _rewardCut, uint256 _feeShare, address _newPosPrev, address _newPosNext)\n        public\n        whenSystemNotPaused\n        currentRoundInitialized\n    {\n        require(\n            !roundsManager().currentRoundLocked(),\n            \"can't update transcoder params, current round is locked\"\n        );\n        require(MathUtils.validPerc(_rewardCut), \"invalid rewardCut percentage\");\n        require(MathUtils.validPerc(_feeShare), \"invalid feeShare percentage\");\n        require(isRegisteredTranscoder(msg.sender), \"transcoder must be registered\");\n\n        Transcoder storage t = transcoders[msg.sender];\n        uint256 currentRound = roundsManager().currentRound();\n\n        require(\n            !isActiveTranscoder(msg.sender) || t.lastRewardRound == currentRound,\n            \"caller can't be active or must have already called reward for the current round\"\n        );\n\n        t.rewardCut = _rewardCut;\n        t.feeShare = _feeShare;\n\n        if (!transcoderPoolV2.contains(msg.sender)) {\n            tryToJoinActiveSet(msg.sender, delegators[msg.sender].delegatedAmount, currentRound.add(1), _newPosPrev, _newPosNext);\n        }\n\n        emit TranscoderUpdate(msg.sender, _rewardCut, _feeShare);\n    }\n\n    /**\n     * @notice Delegate stake towards a specific address and updates the transcoder pool using optional list hints if needed\n     * @dev If the caller is decreasing the stake of its old delegate in the transcoder pool, the caller can provide an optional hint\n     * for the insertion position of the old delegate via the `_oldDelegateNewPosPrev` and `_oldDelegateNewPosNext` params.\n     * If the caller is delegating to a delegate that is in the transcoder pool, the caller can provide an optional hint for the\n     * insertion position of the delegate via the `_currDelegateNewPosPrev` and `_currDelegateNewPosNext` params.\n     * In both cases, a linear search will be executed starting at the hint to find the correct position. In the best case, the hint\n     * is the correct position so no search is executed. See SortedDoublyLL.sol for details on list hints\n     * @param _amount The amount of tokens to stake.\n     * @param _to The address of the transcoder to stake towards\n     * @param _oldDelegateNewPosPrev The address of the previous transcoder in the pool for the old delegate\n     * @param _oldDelegateNewPosNext The address of the next transcoder in the pool for the old delegate\n     * @param _currDelegateNewPosPrev The address of the previous transcoder in the pool for the current delegate\n     * @param _currDelegateNewPosNext The address of the next transcoder in the pool for the current delegate\n     */\n    function bondWithHint(\n        uint256 _amount,\n        address _to,\n        address _oldDelegateNewPosPrev,\n        address _oldDelegateNewPosNext,\n        address _currDelegateNewPosPrev,\n        address _currDelegateNewPosNext\n    )\n        public\n        whenSystemNotPaused\n        currentRoundInitialized\n        autoClaimEarnings\n    {\n        Delegator storage del = delegators[msg.sender];\n\n        uint256 currentRound = roundsManager().currentRound();\n        // Amount to delegate\n        uint256 delegationAmount = _amount;\n        // Current delegate\n        address currentDelegate = del.delegateAddress;\n\n        if (delegatorStatus(msg.sender) == DelegatorStatus.Unbonded) {\n            // New delegate\n            // Set start round\n            // Don't set start round if delegator is in pending state because the start round would not change\n            del.startRound = currentRound.add(1);\n            // Unbonded state = no existing delegate and no bonded stake\n            // Thus, delegation amount = provided amount\n        } else if (currentDelegate != address(0) && currentDelegate != _to) {\n            // A registered transcoder cannot delegate its bonded stake toward another address\n            // because it can only be delegated toward itself\n            // In the future, if delegation towards another registered transcoder as an already\n            // registered transcoder becomes useful (i.e. for transitive delegation), this restriction\n            // could be removed\n            require(!isRegisteredTranscoder(msg.sender), \"registered transcoders can't delegate towards other addresses\");\n            // Changing delegate\n            // Set start round\n            del.startRound = currentRound.add(1);\n            // Update amount to delegate with previous delegation amount\n            delegationAmount = delegationAmount.add(del.bondedAmount);\n\n            decreaseTotalStake(currentDelegate, del.bondedAmount, _oldDelegateNewPosPrev, _oldDelegateNewPosNext);\n        }\n\n        // cannot delegate to someone without having bonded stake\n        require(delegationAmount > 0, \"delegation amount must be greater than 0\");\n        // Update delegate\n        del.delegateAddress = _to;\n        // Update bonded amount\n        del.bondedAmount = del.bondedAmount.add(_amount);\n\n        increaseTotalStake(_to, delegationAmount, _currDelegateNewPosPrev, _currDelegateNewPosNext);\n\n        if (_amount > 0) {\n            // Transfer the LPT to the Minter\n            livepeerToken().transferFrom(msg.sender, address(minter()), _amount);\n        }\n\n        emit Bond(_to, currentDelegate, msg.sender, _amount, del.bondedAmount);\n    }\n\n    /**\n     * @notice Unbond an amount of the delegator's bonded stake and updates the transcoder pool using an optional list hint if needed\n     * @dev If the caller remains in the transcoder pool, the caller can provide an optional hint for its insertion position in the\n     * pool via the `_newPosPrev` and `_newPosNext` params. A linear search will be executed starting at the hint to find the correct position.\n     * In the best case, the hint is the correct position so no search is executed. See SortedDoublyLL.sol details on list hints\n     * @param _amount Amount of tokens to unbond\n     * @param _newPosPrev Address of previous transcoder in pool if the caller remains in the pool\n     * @param _newPosNext Address of next transcoder in pool if the caller remains in the pool\n     */\n    function unbondWithHint(uint256 _amount, address _newPosPrev, address _newPosNext)\n        public\n        whenSystemNotPaused\n        currentRoundInitialized\n        autoClaimEarnings\n    {\n        require(delegatorStatus(msg.sender) == DelegatorStatus.Bonded, \"caller must be bonded\");\n\n        Delegator storage del = delegators[msg.sender];\n\n        require(_amount > 0, \"unbond amount must be greater than 0\");\n        require(_amount <= del.bondedAmount, \"amount is greater than bonded amount\");\n\n        address currentDelegate = del.delegateAddress;\n        uint256 currentRound = roundsManager().currentRound();\n        uint256 withdrawRound = currentRound.add(unbondingPeriod);\n        uint256 unbondingLockId = del.nextUnbondingLockId;\n\n        // Create new unbonding lock\n        del.unbondingLocks[unbondingLockId] = UnbondingLock({\n            amount: _amount,\n            withdrawRound: withdrawRound\n        });\n        // Increment ID for next unbonding lock\n        del.nextUnbondingLockId = unbondingLockId.add(1);\n        // Decrease delegator's bonded amount\n        del.bondedAmount = del.bondedAmount.sub(_amount);\n\n        if (del.bondedAmount == 0) {\n            // Delegator no longer delegated to anyone if it does not have a bonded amount\n            del.delegateAddress = address(0);\n            // Delegator does not have a start round if it is no longer delegated to anyone\n            del.startRound = 0;\n\n            if (transcoderPoolV2.contains(msg.sender)) {\n                resignTranscoder(msg.sender);\n            }\n        }\n\n        // If msg.sender was resigned this statement will only decrease delegators[currentDelegate].delegatedAmount\n        decreaseTotalStake(currentDelegate, _amount, _newPosPrev, _newPosNext);\n\n        emit Unbond(currentDelegate, msg.sender, unbondingLockId, _amount, withdrawRound);\n    }\n\n    /**\n     * @notice Rebond tokens for an unbonding lock to a delegator's current delegate while a delegator is in the Bonded or Pending status and updates\n     * the transcoder pool using an optional list hint if needed\n     * @dev If the delegate is in the transcoder pool, the caller can provide an optional hint for the delegate's insertion position in the\n     * pool via the `_newPosPrev` and `_newPosNext` params. A linear search will be executed starting at the hint to find the correct position.\n     * In the best case, the hint is the correct position so no search is executed. See SortedDoublyLL.sol details on list hints\n     * @param _unbondingLockId ID of unbonding lock to rebond with\n     * @param _newPosPrev Address of previous transcoder in pool if the delegate is in the pool\n     * @param _newPosNext Address of next transcoder in pool if the delegate is in the pool\n     */\n    function rebondWithHint(\n        uint256 _unbondingLockId,\n        address _newPosPrev,\n        address _newPosNext\n    )\n        public\n        whenSystemNotPaused\n        currentRoundInitialized\n        autoClaimEarnings\n    {\n        require(delegatorStatus(msg.sender) != DelegatorStatus.Unbonded, \"caller must be bonded\");\n\n        // Process rebond using unbonding lock\n        processRebond(msg.sender, _unbondingLockId, _newPosPrev, _newPosNext);\n    }\n\n    /**\n     * @notice Rebond tokens for an unbonding lock to a delegate while a delegator is in the Unbonded status and updates the transcoder pool using\n     * an optional list hint if needed\n     * @dev If the delegate joins the transcoder pool, the caller can provide an optional hint for the delegate's insertion position in the\n     * pool via the `_newPosPrev` and `_newPosNext` params. A linear search will be executed starting at the hint to find the correct position.\n     * In the best case, the hint is the correct position so no search is executed. See SortedDoublyLL.sol for details on list hints\n     * @param _to Address of delegate\n     * @param _unbondingLockId ID of unbonding lock to rebond with\n     * @param _newPosPrev Address of previous transcoder in pool if the delegate joins the pool\n     * @param _newPosNext Address of next transcoder in pool if the delegate joins the pool\n     */\n    function rebondFromUnbondedWithHint(\n        address _to,\n        uint256 _unbondingLockId,\n        address _newPosPrev,\n        address _newPosNext\n    )\n        public\n        whenSystemNotPaused\n        currentRoundInitialized\n        autoClaimEarnings\n    {\n        require(delegatorStatus(msg.sender) == DelegatorStatus.Unbonded, \"caller must be unbonded\");\n\n        // Set delegator's start round and transition into Pending state\n        delegators[msg.sender].startRound = roundsManager().currentRound().add(1);\n        // Set delegator's delegate\n        delegators[msg.sender].delegateAddress = _to;\n        // Process rebond using unbonding lock\n        processRebond(msg.sender, _unbondingLockId, _newPosPrev, _newPosNext);\n    }\n\n    /**\n     * @notice Mint token rewards for an active transcoder and its delegators and update the transcoder pool using an optional list hint if needed\n     * @dev If the caller is in the transcoder pool, the caller can provide an optional hint for its insertion position in the\n     * pool via the `_newPosPrev` and `_newPosNext` params. A linear search will be executed starting at the hint to find the correct position.\n     * In the best case, the hint is the correct position so no search is executed. See SortedDoublyLL.sol for details on list hints\n     * @param _newPosPrev Address of previous transcoder in pool if the caller is in the pool\n     * @param _newPosNext Address of next transcoder in pool if the caller is in the pool\n     */\n    function rewardWithHint(address _newPosPrev, address _newPosNext) public whenSystemNotPaused currentRoundInitialized {\n        uint256 currentRound = roundsManager().currentRound();\n\n        require(isActiveTranscoder(msg.sender), \"caller must be an active transcoder\");\n        require(transcoders[msg.sender].lastRewardRound != currentRound, \"caller has already called reward for the current round\");\n\n        Transcoder storage t = transcoders[msg.sender];\n        EarningsPool.Data storage earningsPool = t.earningsPoolPerRound[currentRound];\n\n        // Set last round that transcoder called reward\n        t.lastRewardRound = currentRound;\n        earningsPool.setCommission(t.rewardCut, t.feeShare);\n\n        // If transcoder didn't receive stake updates during the previous round and hasn't called reward for > 1 round\n        // the 'totalStake' and 'claimableStake' on its 'EarningsPool' for the current round wouldn't be initialized\n        // Thus we sync the the transcoder's stake to when it was last updated\n        // 'updateTrancoderWithRewards()' will set the update round to 'currentRound +1' so this synchronization shouldn't occur frequently\n        uint256 lastUpdateRound = t.lastActiveStakeUpdateRound;\n        if (lastUpdateRound < currentRound) {\n            earningsPool.setStake(t.earningsPoolPerRound[lastUpdateRound].totalStake);\n        }\n\n        // Create reward based on active transcoder's stake relative to the total active stake\n        // rewardTokens = (current mintable tokens for the round * active transcoder stake) / total active stake\n        uint256 rewardTokens = minter().createReward(earningsPool.totalStake, currentRoundTotalActiveStake);\n\n        updateTranscoderWithRewards(msg.sender, rewardTokens, currentRound, _newPosPrev, _newPosNext);\n\n        emit Reward(msg.sender, rewardTokens);\n    }\n\n    /**\n     * @notice Returns pending bonded stake for a delegator from its lastClaimRound through an end round\n     * @param _delegator Address of delegator\n     * @param _endRound The last round to compute pending stake from\n     * @return Pending bonded stake for '_delegator' since last claiming rewards\n     */\n    function pendingStake(address _delegator, uint256 _endRound) public view returns (uint256) {\n        uint256 currentRound = roundsManager().currentRound();\n        uint256 endRound = _endRound;\n\n        if (endRound > currentRound) {\n            // Highest round we can calculate up to is the current round\n            endRound = currentRound;\n        }\n\n        Delegator storage del = delegators[_delegator];\n        uint256 currentBondedAmount = del.bondedAmount;\n\n        for (uint256 i = del.lastClaimRound + 1; i <= _endRound; i++) {\n            EarningsPool.Data storage earningsPool = transcoders[del.delegateAddress].earningsPoolPerRound[i];\n\n            bool isTranscoder = _delegator == del.delegateAddress;\n            if (earningsPool.hasClaimableShares()) {\n                // Calculate and add reward pool share from this round\n                currentBondedAmount = currentBondedAmount.add(earningsPool.rewardPoolShare(currentBondedAmount, isTranscoder));\n            }\n        }\n\n        return currentBondedAmount;\n    }\n\n    /**\n     * @notice Returns pending fees for a delegator from its lastClaimRound through an end round\n     * @param _delegator Address of delegator\n     * @param _endRound The last round to compute pending fees from\n     * @return Pending fees for '_delegator' since last claiming fees\n     */\n    function pendingFees(address _delegator, uint256 _endRound) public view returns (uint256) {\n        uint256 currentRound = roundsManager().currentRound();\n        uint256 endRound = _endRound;\n\n        if (endRound > currentRound) {\n            // Highest round we can calculate up to is the current round\n            endRound = currentRound;\n        }\n\n        Delegator storage del = delegators[_delegator];\n        uint256 currentFees = del.fees;\n        uint256 currentBondedAmount = del.bondedAmount;\n\n        for (uint256 i = del.lastClaimRound + 1; i <= _endRound; i++) {\n            EarningsPool.Data storage earningsPool = transcoders[del.delegateAddress].earningsPoolPerRound[i];\n\n            if (earningsPool.hasClaimableShares()) {\n                bool isTranscoder = _delegator == del.delegateAddress;\n                // Calculate and add fee pool share from this round\n                currentFees = currentFees.add(earningsPool.feePoolShare(currentBondedAmount, isTranscoder));\n                // Calculate new bonded amount with rewards from this round. Updated bonded amount used\n                // to calculate fee pool share in next round\n                currentBondedAmount = currentBondedAmount.add(earningsPool.rewardPoolShare(currentBondedAmount, isTranscoder));\n            }\n        }\n\n        return currentFees;\n    }\n\n    /**\n     * @notice Returns total bonded stake for a transcoder\n     * @param _transcoder Address of transcoder\n     * @return total bonded stake for a delegator\n     */\n    function transcoderTotalStake(address _transcoder) public view returns (uint256) {\n        return delegators[_transcoder].delegatedAmount;\n    }\n\n    /**\n     * @notice Computes transcoder status\n     * @param _transcoder Address of transcoder\n     * @return registered or not registered transcoder status\n     */\n    function transcoderStatus(address _transcoder) public view returns (TranscoderStatus) {\n        if (isRegisteredTranscoder(_transcoder)) return TranscoderStatus.Registered;\n        return TranscoderStatus.NotRegistered;\n    }\n\n    /**\n     * @notice Computes delegator status\n     * @param _delegator Address of delegator\n     * @return bonded, unbonded or pending delegator status\n     */\n    function delegatorStatus(address _delegator) public view returns (DelegatorStatus) {\n        Delegator storage del = delegators[_delegator];\n\n        if (del.bondedAmount == 0) {\n            // Delegator unbonded all its tokens\n            return DelegatorStatus.Unbonded;\n        } else if (del.startRound > roundsManager().currentRound()) {\n            // Delegator round start is in the future\n            return DelegatorStatus.Pending;\n        } else {\n            // Delegator round start is now or in the past\n            // del.startRound != 0 here because if del.startRound = 0 then del.bondedAmount = 0 which\n            // would trigger the first if clause\n            return DelegatorStatus.Bonded;\n        }\n    }\n\n    /**\n     * @notice Return transcoder information\n     * @param _transcoder Address of transcoder\n     * @return trancoder's last reward round\n     * @return transcoder's reward cut\n     * @return transcoder's fee share\n     * @return round in which transcoder's stake was last updated while active\n     * @return round in which transcoder became active\n     * @return round in which transcoder will no longer be active\n     */\n    function getTranscoder(\n        address _transcoder\n    )\n        public\n        view\n        returns (uint256 lastRewardRound, uint256 rewardCut, uint256 feeShare, uint256 lastActiveStakeUpdateRound, uint256 activationRound, uint256 deactivationRound)\n    {\n        Transcoder storage t = transcoders[_transcoder];\n\n        lastRewardRound = t.lastRewardRound;\n        rewardCut = t.rewardCut;\n        feeShare = t.feeShare;\n        lastActiveStakeUpdateRound = t.lastActiveStakeUpdateRound;\n        activationRound = t.activationRound;\n        deactivationRound = t.deactivationRound;\n    }\n\n    /**\n     * @notice Return transcoder's token pools for a given round\n     * @param _transcoder Address of transcoder\n     * @param _round Round number\n     * @return reward pool for delegates to '_transcoder'\n     * @return fee pool for delegates to '_trancoder'\n     * @return transcoder's total stake\n     * @return claimable stake left on transcoder's earningspool for '_round'\n     * @return transcoder's reward cut for '_round'\n     * @return transcoder's fee share for '_round'\n     * @return transcoder's rewards for '_round'\n     * @return transcoder's fees for '_round'\n     * @return true if transcoder has a split reward and fee pool\n     */\n    function getTranscoderEarningsPoolForRound(\n        address _transcoder,\n        uint256 _round\n    )\n        public\n        view\n        returns (uint256 rewardPool, uint256 feePool, uint256 totalStake, uint256 claimableStake, uint256 transcoderRewardCut, uint256 transcoderFeeShare, uint256 transcoderRewardPool, uint256 transcoderFeePool, bool hasTranscoderRewardFeePool)\n    {\n        EarningsPool.Data storage earningsPool = transcoders[_transcoder].earningsPoolPerRound[_round];\n\n        rewardPool = earningsPool.rewardPool;\n        feePool = earningsPool.feePool;\n        totalStake = earningsPool.totalStake;\n        claimableStake = earningsPool.claimableStake;\n        transcoderRewardCut = earningsPool.transcoderRewardCut;\n        transcoderFeeShare = earningsPool.transcoderFeeShare;\n        transcoderRewardPool = earningsPool.transcoderRewardPool;\n        transcoderFeePool = earningsPool.transcoderFeePool;\n        hasTranscoderRewardFeePool = earningsPool.hasTranscoderRewardFeePool;\n    }\n\n    /**\n     * @notice Return delegator info\n     * @param _delegator Address of delegator\n     * @return total amount bonded by '_delegator'\n     * @return amount of fees collected by '_delegator'\n     * @return address '_delegator' has bonded to\n     * @return total amount delegated to '_delegator'\n     * @return round in which bond for '_delegator' became effective\n     * @return round for which '_delegator' has last claimed earnings\n     * @return ID for the next unbonding lock created for '_delegator'\n     */\n    function getDelegator(\n        address _delegator\n    )\n        public\n        view\n        returns (uint256 bondedAmount, uint256 fees, address delegateAddress, uint256 delegatedAmount, uint256 startRound, uint256 lastClaimRound, uint256 nextUnbondingLockId)\n    {\n        Delegator storage del = delegators[_delegator];\n\n        bondedAmount = del.bondedAmount;\n        fees = del.fees;\n        delegateAddress = del.delegateAddress;\n        delegatedAmount = del.delegatedAmount;\n        startRound = del.startRound;\n        lastClaimRound = del.lastClaimRound;\n        nextUnbondingLockId = del.nextUnbondingLockId;\n    }\n\n    /**\n     * @notice Return delegator's unbonding lock info\n     * @param _delegator Address of delegator\n     * @param _unbondingLockId ID of unbonding lock\n     * @return amount of stake locked up by unbonding lock\n     * @return round in which 'amount' becomes available for withdrawal\n     */\n    function getDelegatorUnbondingLock(\n        address _delegator,\n        uint256 _unbondingLockId\n    )\n        public\n        view\n        returns (uint256 amount, uint256 withdrawRound)\n    {\n        UnbondingLock storage lock = delegators[_delegator].unbondingLocks[_unbondingLockId];\n\n        return (lock.amount, lock.withdrawRound);\n    }\n\n    /**\n     * @notice Returns max size of transcoder pool\n     * @return transcoder pool max size\n     */\n    function getTranscoderPoolMaxSize() public view returns (uint256) {\n        return transcoderPoolV2.getMaxSize();\n    }\n\n    /**\n     * @notice Returns size of transcoder pool\n     * @return transcoder pool current size\n     */\n    function getTranscoderPoolSize() public view returns (uint256) {\n        return transcoderPoolV2.getSize();\n    }\n\n    /**\n     * @notice Returns transcoder with most stake in pool\n     * @return address for transcoder with highest stake in transcoder pool\n     */\n    function getFirstTranscoderInPool() public view returns (address) {\n        return transcoderPoolV2.getFirst();\n    }\n\n    /**\n     * @notice Returns next transcoder in pool for a given transcoder\n     * @param _transcoder Address of a transcoder in the pool\n     * @return address for the transcoder after '_transcoder' in transcoder pool\n     */\n    function getNextTranscoderInPool(address _transcoder) public view returns (address) {\n        return transcoderPoolV2.getNext(_transcoder);\n    }\n\n    /**\n     * @notice Return total bonded tokens\n     * @return total active stake for the current round\n     */\n    function getTotalBonded() public view returns (uint256) {\n        return currentRoundTotalActiveStake;\n    }\n\n   /**\n     * @notice Return whether a transcoder is active for the current round\n     * @param _transcoder Transcoder address\n     * @return true if transcoder is active\n     */\n    function isActiveTranscoder(address _transcoder) public view returns (bool) {\n        Transcoder storage t = transcoders[_transcoder];\n        uint256 currentRound = roundsManager().currentRound();\n        return t.activationRound <= currentRound && currentRound < t.deactivationRound;\n    }\n\n    /**\n     * @notice Return whether a transcoder is registered\n     * @param _transcoder Transcoder address\n     * @return true if transcoder is self-bonded\n     */\n    function isRegisteredTranscoder(address _transcoder) public view returns (bool) {\n        Delegator storage d = delegators[_transcoder];\n        return d.delegateAddress == _transcoder && d.bondedAmount > 0;\n    }\n\n    /**\n     * @notice Return whether an unbonding lock for a delegator is valid\n     * @param _delegator Address of delegator\n     * @param _unbondingLockId ID of unbonding lock\n     * @return true if unbondingLock for ID has a non-zero withdraw round\n     */\n    function isValidUnbondingLock(address _delegator, uint256 _unbondingLockId) public view returns (bool) {\n        // A unbonding lock is only valid if it has a non-zero withdraw round (the default value is zero)\n        return delegators[_delegator].unbondingLocks[_unbondingLockId].withdrawRound > 0;\n    }\n\n    /**\n     * @dev Increase the total stake for a delegate and updates its 'lastActiveStakeUpdateRound'\n     * @param _delegate The delegate to increase the stake for\n     * @param _amount The amount to increase the stake for '_delegate' by\n     */\n    function increaseTotalStake(address _delegate, uint256 _amount, address _newPosPrev, address _newPosNext) internal {\n        if (isRegisteredTranscoder(_delegate)) {\n            uint256 newStake = transcoderTotalStake(_delegate).add(_amount);\n            uint256 nextRound = roundsManager().currentRound().add(1);\n\n            // If the transcoder is already in the active set update its stake and return\n            if (transcoderPoolV2.contains(_delegate)) {\n                transcoderPoolV2.updateKey(_delegate, newStake, _newPosPrev, _newPosNext);\n                nextRoundTotalActiveStake = nextRoundTotalActiveStake.add(_amount);\n                Transcoder storage t = transcoders[_delegate];\n                t.earningsPoolPerRound[nextRound].setStake(newStake);\n                t.lastActiveStakeUpdateRound = nextRound;\n            } else {\n                // Check if the transcoder is eligible to join the active set in the update round\n                tryToJoinActiveSet(_delegate, newStake, nextRound, _newPosPrev, _newPosNext);\n            }\n        }\n\n        // Increase delegate's delegated amount\n        delegators[_delegate].delegatedAmount = delegators[_delegate].delegatedAmount.add(_amount);\n    }\n\n    /**\n     * @dev Decrease the total stake for a delegate and updates its 'lastActiveStakeUpdateRound'\n     * @param _delegate The transcoder to decrease the stake for\n     * @param _amount The amount to decrease the stake for '_delegate' by\n     */\n    function decreaseTotalStake(address _delegate, uint256 _amount, address _newPosPrev, address _newPosNext) internal {\n        if (transcoderPoolV2.contains(_delegate)) {\n            uint256 newStake = transcoderTotalStake(_delegate).sub(_amount);\n            uint256 nextRound = roundsManager().currentRound().add(1);\n\n            transcoderPoolV2.updateKey(_delegate, newStake, _newPosPrev, _newPosNext);\n            nextRoundTotalActiveStake = nextRoundTotalActiveStake.sub(_amount);\n            Transcoder storage t = transcoders[_delegate];\n            t.lastActiveStakeUpdateRound = nextRound;\n            t.earningsPoolPerRound[nextRound].setStake(newStake);\n        }\n\n        // Decrease old delegate's delegated amount\n        delegators[_delegate].delegatedAmount = delegators[_delegate].delegatedAmount.sub(_amount);\n    }\n\n    /**\n     * @dev Tries to add a transcoder to active transcoder pool, evicts the active transcoder with the lowest stake if the pool is full\n     * @param _transcoder The transcoder to insert into the transcoder pool\n     * @param _totalStake The total stake for '_transcoder'\n     * @param _activationRound The round in which the transcoder should become active\n     */\n    function tryToJoinActiveSet(\n        address _transcoder,\n        uint256 _totalStake,\n        uint256 _activationRound,\n        address _newPosPrev,\n        address _newPosNext\n    )\n        internal\n    {\n        uint256 pendingNextRoundTotalActiveStake = nextRoundTotalActiveStake;\n\n        if (transcoderPoolV2.isFull()) {\n            address lastTranscoder = transcoderPoolV2.getLast();\n            uint256 lastStake = transcoderTotalStake(lastTranscoder);\n\n            // If the pool is full and the transcoder has less stake than the least stake transcoder in the pool\n            // then the transcoder is unable to join the active set for the next round\n            if (_totalStake <= lastStake) {\n                return;\n            }\n\n            // Evict the least stake transcoder from the active set for the next round\n            // Not zeroing 'Transcoder.lastActiveStakeUpdateRound' saves gas (5k when transcoder is evicted and 20k when transcoder is reinserted)\n            // There should be no side-effects as long as the value is properly updated on stake updates\n            // Not zeroing the stake on the current round's 'EarningsPool' saves gas and should have no side effects as long as\n            // 'EarningsPool.setStake()' is called whenever a transcoder becomes active again.\n            transcoderPoolV2.remove(lastTranscoder);\n            transcoders[lastTranscoder].deactivationRound = _activationRound;\n            pendingNextRoundTotalActiveStake = pendingNextRoundTotalActiveStake.sub(lastStake);\n\n            emit TranscoderDeactivated(lastTranscoder, _activationRound);\n        }\n\n        transcoderPoolV2.insert(_transcoder, _totalStake, _newPosPrev, _newPosNext);\n        pendingNextRoundTotalActiveStake = pendingNextRoundTotalActiveStake.add(_totalStake);\n        Transcoder storage t = transcoders[_transcoder];\n        t.lastActiveStakeUpdateRound = _activationRound;\n        t.activationRound = _activationRound;\n        t.deactivationRound = MAX_FUTURE_ROUND;\n        t.earningsPoolPerRound[_activationRound].setStake(_totalStake);\n        nextRoundTotalActiveStake = pendingNextRoundTotalActiveStake;\n        emit TranscoderActivated(_transcoder, _activationRound);\n    }\n\n    /**\n     * @dev Remove a transcoder from the pool and deactivate it\n     */\n    function resignTranscoder(address _transcoder) internal {\n        // Not zeroing 'Transcoder.lastActiveStakeUpdateRound' saves gas (5k when transcoder is evicted and 20k when transcoder is reinserted)\n        // There should be no side-effects as long as the value is properly updated on stake updates\n        // Not zeroing the stake on the current round's 'EarningsPool' saves gas and should have no side effects as long as\n        // 'EarningsPool.setStake()' is called whenever a transcoder becomes active again.\n        transcoderPoolV2.remove(_transcoder);\n        nextRoundTotalActiveStake = nextRoundTotalActiveStake.sub(transcoderTotalStake(_transcoder));\n        uint256 deactivationRound = roundsManager().currentRound().add(1);\n        transcoders[_transcoder].deactivationRound = deactivationRound;\n        emit TranscoderDeactivated(_transcoder, deactivationRound);\n    }\n\n    /**\n     * @dev Update a transcoder with rewards and update the transcoder pool with an optional list hint if needed.\n     * See SortedDoublyLL.sol for details on list hints\n     * @param _transcoder Address of transcoder\n     * @param _rewards Amount of rewards\n     * @param _round Round that transcoder is updated\n     * @param _newPosPrev Address of previous transcoder in pool if the transcoder is in the pool\n     * @param _newPosNext Address of next transcoder in pool if the transcoder is in the pool\n     */\n    function updateTranscoderWithRewards(\n        address _transcoder,\n        uint256 _rewards,\n        uint256 _round,\n        address _newPosPrev,\n        address _newPosNext\n    )\n        internal\n    {\n        EarningsPool.Data storage earningsPool = transcoders[_transcoder].earningsPoolPerRound[_round];\n        // Add rewards to reward pool\n        earningsPool.addToRewardPool(_rewards);\n        // Update transcoder's total stake with rewards\n        increaseTotalStake(_transcoder, _rewards, _newPosPrev, _newPosNext);\n    }\n\n    /**\n     * @dev Update a delegator with token pools shares from its lastClaimRound through a given round\n     * @param _delegator Delegator address\n     * @param _endRound The last round for which to update a delegator's stake with token pools shares\n     * @param _lastClaimRound The round for which a delegator has last claimed earnings\n     */\n    function updateDelegatorWithEarnings(address _delegator, uint256 _endRound, uint256 _lastClaimRound) internal {\n        Delegator storage del = delegators[_delegator];\n        uint256 startRound = _lastClaimRound.add(1);\n        uint256 currentBondedAmount = del.bondedAmount;\n        uint256 currentFees = del.fees;\n\n        // Only will have earnings to claim if you have a delegate\n        // If not delegated, skip the earnings claim process\n        if (del.delegateAddress != address(0)) {\n            // Cannot claim earnings for more than maxEarningsClaimsRounds\n            // This is a number to cause transactions to fail early if\n            // we know they will require too much gas to loop through all the necessary rounds to claim earnings\n            // The user should instead manually invoke `claimEarnings` to split up the claiming process\n            // across multiple transactions\n            require(_endRound.sub(_lastClaimRound) <= maxEarningsClaimsRounds, \"too many rounds to claim through\");\n\n            for (uint256 i = startRound; i <= _endRound; i++) {\n                EarningsPool.Data storage earningsPool = transcoders[del.delegateAddress].earningsPoolPerRound[i];\n\n                if (earningsPool.hasClaimableShares()) {\n                    (uint256 fees, uint256 rewards) = earningsPool.claimShare(currentBondedAmount, _delegator == del.delegateAddress);\n\n                    currentFees = currentFees.add(fees);\n                    currentBondedAmount = currentBondedAmount.add(rewards);\n                }\n            }\n        }\n\n        emit EarningsClaimed(\n            del.delegateAddress,\n            _delegator,\n            currentBondedAmount.sub(del.bondedAmount),\n            currentFees.sub(del.fees),\n            startRound,\n            _endRound\n        );\n\n        del.lastClaimRound = _endRound;\n        // Rewards are bonded by default\n        del.bondedAmount = currentBondedAmount;\n        del.fees = currentFees;\n    }\n\n    /**\n     * @dev Update the state of a delegator and its delegate by processing a rebond using an unbonding lock and update the transcoder pool with an optional\n     * list hint if needed. See SortedDoublyLL.sol for details on list hints\n     * @param _delegator Address of delegator\n     * @param _unbondingLockId ID of unbonding lock to rebond with\n     * @param _newPosPrev Address of previous transcoder in pool if the delegate is already in or joins the pool\n     * @param _newPosNext Address of next transcoder in pool if the delegate is already in or joins the pool\n     */\n    function processRebond(address _delegator, uint256 _unbondingLockId, address _newPosPrev, address _newPosNext) internal {\n        Delegator storage del = delegators[_delegator];\n        UnbondingLock storage lock = del.unbondingLocks[_unbondingLockId];\n\n        require(isValidUnbondingLock(_delegator, _unbondingLockId), \"invalid unbonding lock ID\");\n\n        uint256 amount = lock.amount;\n        // Increase delegator's bonded amount\n        del.bondedAmount = del.bondedAmount.add(amount);\n\n        // Delete lock\n        delete del.unbondingLocks[_unbondingLockId];\n\n        increaseTotalStake(del.delegateAddress, amount, _newPosPrev, _newPosNext);\n\n        emit Rebond(del.delegateAddress, _delegator, _unbondingLockId, amount);\n    }\n\n    /**\n     * @dev Return LivepeerToken interface\n     * @return Livepeer token contract registered with Controller\n     */\n    function livepeerToken() internal view returns (ILivepeerToken) {\n        return ILivepeerToken(controller.getContract(keccak256(\"LivepeerToken\")));\n    }\n\n    /**\n     * @dev Return Minter interface\n     * @return Minter contract registered with Controller\n     */\n    function minter() internal view returns (IMinter) {\n        return IMinter(controller.getContract(keccak256(\"Minter\")));\n    }\n\n    /**\n     * @dev Return RoundsManager interface\n     * @return RoundsManager contract registered with Controller\n     */\n    function roundsManager() internal view returns (IRoundsManager) {\n        return IRoundsManager(controller.getContract(keccak256(\"RoundsManager\")));\n    }\n}\n",
    "sourcePath": "/Users/nico/Desktop/livepeer/protocol/contracts/bonding/BondingManager.sol",
    "compiler": {
        "name": "solc",
        "version": "0.5.11+commit.22be8592.Linux.g++"
    },
    "schemaVersion": "3.0.23",
    "updatedAt": "2020-09-08T19:20:13.084Z",
    "devdoc": {
        "methods": {
            "bond(uint256,address)": {
                "params": {
                    "_amount": "The amount of tokens to stake",
                    "_to": "The address of the transcoder to stake towards"
                }
            },
            "bondWithHint(uint256,address,address,address,address,address)": {
                "details": "If the caller is decreasing the stake of its old delegate in the transcoder pool, the caller can provide an optional hint for the insertion position of the old delegate via the `_oldDelegateNewPosPrev` and `_oldDelegateNewPosNext` params. If the caller is delegating to a delegate that is in the transcoder pool, the caller can provide an optional hint for the insertion position of the delegate via the `_currDelegateNewPosPrev` and `_currDelegateNewPosNext` params. In both cases, a linear search will be executed starting at the hint to find the correct position. In the best case, the hint is the correct position so no search is executed. See SortedDoublyLL.sol for details on list hints",
                "params": {
                    "_amount": "The amount of tokens to stake.",
                    "_currDelegateNewPosNext": "The address of the next transcoder in the pool for the current delegate",
                    "_currDelegateNewPosPrev": "The address of the previous transcoder in the pool for the current delegate",
                    "_oldDelegateNewPosNext": "The address of the next transcoder in the pool for the old delegate",
                    "_oldDelegateNewPosPrev": "The address of the previous transcoder in the pool for the old delegate",
                    "_to": "The address of the transcoder to stake towards"
                }
            },
            "claimEarnings(uint256)": {
                "params": {
                    "_endRound": "The last round for which to claim token pools shares for a delegator"
                }
            },
            "constructor": {
                "details": "This constructor will not initialize any state variables besides `controller`. The following setter functions should be used to initialize state variables post-deployment: - setUnbondingPeriod() - setNumActiveTranscoders() - setMaxEarningsClaimsRounds()",
                "params": {
                    "_controller": "Address of Controller that this contract will be registered with"
                }
            },
            "delegatorStatus(address)": {
                "params": {
                    "_delegator": "Address of delegator"
                },
                "return": "bonded, unbonded or pending delegator status"
            },
            "getDelegator(address)": {
                "params": {
                    "_delegator": "Address of delegator"
                },
                "return": "total amount bonded by '_delegator'amount of fees collected by '_delegator'address '_delegator' has bonded tototal amount delegated to '_delegator'round in which bond for '_delegator' became effectiveround for which '_delegator' has last claimed earningsID for the next unbonding lock created for '_delegator'"
            },
            "getDelegatorUnbondingLock(address,uint256)": {
                "params": {
                    "_delegator": "Address of delegator",
                    "_unbondingLockId": "ID of unbonding lock"
                },
                "return": "amount of stake locked up by unbonding lockround in which 'amount' becomes available for withdrawal"
            },
            "getFirstTranscoderInPool()": {
                "return": "address for transcoder with highest stake in transcoder pool"
            },
            "getNextTranscoderInPool(address)": {
                "params": {
                    "_transcoder": "Address of a transcoder in the pool"
                },
                "return": "address for the transcoder after '_transcoder' in transcoder pool"
            },
            "getTotalBonded()": {
                "return": "total active stake for the current round"
            },
            "getTranscoder(address)": {
                "params": {
                    "_transcoder": "Address of transcoder"
                },
                "return": "trancoder's last reward roundtranscoder's reward cuttranscoder's fee shareround in which transcoder's stake was last updated while activeround in which transcoder became activeround in which transcoder will no longer be active"
            },
            "getTranscoderEarningsPoolForRound(address,uint256)": {
                "params": {
                    "_round": "Round number",
                    "_transcoder": "Address of transcoder"
                },
                "return": "reward pool for delegates to '_transcoder'fee pool for delegates to '_trancoder'transcoder's total stakeclaimable stake left on transcoder's earningspool for '_round'transcoder's reward cut for '_round'transcoder's fee share for '_round'transcoder's rewards for '_round'transcoder's fees for '_round'true if transcoder has a split reward and fee pool"
            },
            "getTranscoderPoolMaxSize()": {
                "return": "transcoder pool max size"
            },
            "getTranscoderPoolSize()": {
                "return": "transcoder pool current size"
            },
            "isActiveTranscoder(address)": {
                "params": {
                    "_transcoder": "Transcoder address"
                },
                "return": "true if transcoder is active"
            },
            "isRegisteredTranscoder(address)": {
                "params": {
                    "_transcoder": "Transcoder address"
                },
                "return": "true if transcoder is self-bonded"
            },
            "isValidUnbondingLock(address,uint256)": {
                "params": {
                    "_delegator": "Address of delegator",
                    "_unbondingLockId": "ID of unbonding lock"
                },
                "return": "true if unbondingLock for ID has a non-zero withdraw round"
            },
            "pendingFees(address,uint256)": {
                "params": {
                    "_delegator": "Address of delegator",
                    "_endRound": "The last round to compute pending fees from"
                },
                "return": "Pending fees for '_delegator' since last claiming fees"
            },
            "pendingStake(address,uint256)": {
                "params": {
                    "_delegator": "Address of delegator",
                    "_endRound": "The last round to compute pending stake from"
                },
                "return": "Pending bonded stake for '_delegator' since last claiming rewards"
            },
            "rebond(uint256)": {
                "params": {
                    "_unbondingLockId": "ID of unbonding lock to rebond with"
                }
            },
            "rebondFromUnbonded(address,uint256)": {
                "params": {
                    "_to": "Address of delegate",
                    "_unbondingLockId": "ID of unbonding lock to rebond with"
                }
            },
            "rebondFromUnbondedWithHint(address,uint256,address,address)": {
                "details": "If the delegate joins the transcoder pool, the caller can provide an optional hint for the delegate's insertion position in the pool via the `_newPosPrev` and `_newPosNext` params. A linear search will be executed starting at the hint to find the correct position. In the best case, the hint is the correct position so no search is executed. See SortedDoublyLL.sol for details on list hints",
                "params": {
                    "_newPosNext": "Address of next transcoder in pool if the delegate joins the pool",
                    "_newPosPrev": "Address of previous transcoder in pool if the delegate joins the pool",
                    "_to": "Address of delegate",
                    "_unbondingLockId": "ID of unbonding lock to rebond with"
                }
            },
            "rebondWithHint(uint256,address,address)": {
                "details": "If the delegate is in the transcoder pool, the caller can provide an optional hint for the delegate's insertion position in the pool via the `_newPosPrev` and `_newPosNext` params. A linear search will be executed starting at the hint to find the correct position. In the best case, the hint is the correct position so no search is executed. See SortedDoublyLL.sol details on list hints",
                "params": {
                    "_newPosNext": "Address of next transcoder in pool if the delegate is in the pool",
                    "_newPosPrev": "Address of previous transcoder in pool if the delegate is in the pool",
                    "_unbondingLockId": "ID of unbonding lock to rebond with"
                }
            },
            "rewardWithHint(address,address)": {
                "details": "If the caller is in the transcoder pool, the caller can provide an optional hint for its insertion position in the pool via the `_newPosPrev` and `_newPosNext` params. A linear search will be executed starting at the hint to find the correct position. In the best case, the hint is the correct position so no search is executed. See SortedDoublyLL.sol for details on list hints",
                "params": {
                    "_newPosNext": "Address of next transcoder in pool if the caller is in the pool",
                    "_newPosPrev": "Address of previous transcoder in pool if the caller is in the pool"
                }
            },
            "setController(address)": {
                "params": {
                    "_controller": "Controller contract address"
                }
            },
            "setMaxEarningsClaimsRounds(uint256)": {
                "params": {
                    "_maxEarningsClaimsRounds": "Max number of rounds a caller can claim earnings for at once"
                }
            },
            "setNumActiveTranscoders(uint256)": {
                "params": {
                    "_numActiveTranscoders": "Number of active transcoders"
                }
            },
            "setUnbondingPeriod(uint64)": {
                "params": {
                    "_unbondingPeriod": "Rounds between unbonding and possible withdrawal"
                }
            },
            "slashTranscoder(address,address,uint256,uint256)": {
                "params": {
                    "_finder": "Finder that proved a transcoder violated a slashing condition. Null address if there is no finder",
                    "_finderFee": "Percentage of penalty awarded to finder. Zero if there is no finder",
                    "_slashAmount": "Percentage of transcoder bond to be slashed",
                    "_transcoder": "Transcoder address"
                }
            },
            "transcoder(uint256,uint256)": {
                "details": "Percentages are represented as numerators of fractions over MathUtils.PERC_DIVISOR",
                "params": {
                    "_feeShare": "% of fees paid to delegators by a transcoder",
                    "_rewardCut": "% of reward paid to transcoder by a delegator"
                }
            },
            "transcoderStatus(address)": {
                "params": {
                    "_transcoder": "Address of transcoder"
                },
                "return": "registered or not registered transcoder status"
            },
            "transcoderTotalStake(address)": {
                "params": {
                    "_transcoder": "Address of transcoder"
                },
                "return": "total bonded stake for a delegator"
            },
            "transcoderWithHint(uint256,uint256,address,address)": {
                "details": "Percentages are represented as numerators of fractions over MathUtils.PERC_DIVISOR. If the caller is going to be added to the pool, the caller can provide an optional hint for the insertion position in the pool via the `_newPosPrev` and `_newPosNext` params. A linear search will be executed starting at the hint to find the correct position - in the best case, the hint is the correct position so no search is executed. See SortedDoublyLL.sol for details on list hints",
                "params": {
                    "_feeShare": "% of fees paid to delegators by a transcoder",
                    "_newPosNext": "Address of next transcoder in pool if the caller joins the pool",
                    "_newPosPrev": "Address of previous transcoder in pool if the caller joins the pool",
                    "_rewardCut": "% of reward paid to transcoder by a delegator"
                }
            },
            "unbond(uint256)": {
                "params": {
                    "_amount": "Amount of tokens to unbond"
                }
            },
            "unbondWithHint(uint256,address,address)": {
                "details": "If the caller remains in the transcoder pool, the caller can provide an optional hint for its insertion position in the pool via the `_newPosPrev` and `_newPosNext` params. A linear search will be executed starting at the hint to find the correct position. In the best case, the hint is the correct position so no search is executed. See SortedDoublyLL.sol details on list hints",
                "params": {
                    "_amount": "Amount of tokens to unbond",
                    "_newPosNext": "Address of next transcoder in pool if the caller remains in the pool",
                    "_newPosPrev": "Address of previous transcoder in pool if the caller remains in the pool"
                }
            },
            "updateTranscoderWithFees(address,uint256,uint256)": {
                "params": {
                    "_fees": "Fees to be added to the fee pool",
                    "_transcoder": "Transcoder address"
                }
            },
            "withdrawStake(uint256)": {
                "params": {
                    "_unbondingLockId": "ID of unbonding lock to withdraw with"
                }
            }
        },
        "title": "BondingManager"
    },
    "userdoc": {
        "methods": {
            "bond(uint256,address)": {
                "notice": "Delegate stake towards a specific address"
            },
            "bondWithHint(uint256,address,address,address,address,address)": {
                "notice": "Delegate stake towards a specific address and updates the transcoder pool using optional list hints if needed"
            },
            "claimEarnings(uint256)": {
                "notice": "Claim token pools shares for a delegator from its lastClaimRound through the end round"
            },
            "constructor": "BondingManager constructor. Only invokes constructor of base Manager contract with provided Controller address",
            "delegatorStatus(address)": {
                "notice": "Computes delegator status"
            },
            "getDelegator(address)": {
                "notice": "Return delegator info"
            },
            "getDelegatorUnbondingLock(address,uint256)": {
                "notice": "Return delegator's unbonding lock info"
            },
            "getFirstTranscoderInPool()": {
                "notice": "Returns transcoder with most stake in pool"
            },
            "getNextTranscoderInPool(address)": {
                "notice": "Returns next transcoder in pool for a given transcoder"
            },
            "getTotalBonded()": {
                "notice": "Return total bonded tokens"
            },
            "getTranscoder(address)": {
                "notice": "Return transcoder information"
            },
            "getTranscoderEarningsPoolForRound(address,uint256)": {
                "notice": "Return transcoder's token pools for a given round"
            },
            "getTranscoderPoolMaxSize()": {
                "notice": "Returns max size of transcoder pool"
            },
            "getTranscoderPoolSize()": {
                "notice": "Returns size of transcoder pool"
            },
            "isActiveTranscoder(address)": {
                "notice": "Return whether a transcoder is active for the current round"
            },
            "isRegisteredTranscoder(address)": {
                "notice": "Return whether a transcoder is registered"
            },
            "isValidUnbondingLock(address,uint256)": {
                "notice": "Return whether an unbonding lock for a delegator is valid"
            },
            "pendingFees(address,uint256)": {
                "notice": "Returns pending fees for a delegator from its lastClaimRound through an end round"
            },
            "pendingStake(address,uint256)": {
                "notice": "Returns pending bonded stake for a delegator from its lastClaimRound through an end round"
            },
            "rebond(uint256)": {
                "notice": "Rebond tokens for an unbonding lock to a delegator's current delegate while a delegator is in the Bonded or Pending status"
            },
            "rebondFromUnbonded(address,uint256)": {
                "notice": "Rebond tokens for an unbonding lock to a delegate while a delegator is in the Unbonded status"
            },
            "rebondFromUnbondedWithHint(address,uint256,address,address)": {
                "notice": "Rebond tokens for an unbonding lock to a delegate while a delegator is in the Unbonded status and updates the transcoder pool using an optional list hint if needed"
            },
            "rebondWithHint(uint256,address,address)": {
                "notice": "Rebond tokens for an unbonding lock to a delegator's current delegate while a delegator is in the Bonded or Pending status and updates the transcoder pool using an optional list hint if needed"
            },
            "reward()": {
                "notice": "Mint token rewards for an active transcoder and its delegators"
            },
            "rewardWithHint(address,address)": {
                "notice": "Mint token rewards for an active transcoder and its delegators and update the transcoder pool using an optional list hint if needed"
            },
            "setController(address)": {
                "notice": "Set controller. Only callable by current controller"
            },
            "setCurrentRoundTotalActiveStake()": {
                "notice": "Called during round initialization to set the total active stake for the round. Only callable by the RoundsManager"
            },
            "setMaxEarningsClaimsRounds(uint256)": {
                "notice": "Set max number of rounds a caller can claim earnings for at once. Only callable by Controller owner"
            },
            "setNumActiveTranscoders(uint256)": {
                "notice": "Set maximum number of active transcoders. Only callable by Controller owner"
            },
            "setUnbondingPeriod(uint64)": {
                "notice": "Set unbonding period. Only callable by Controller owner"
            },
            "slashTranscoder(address,address,uint256,uint256)": {
                "notice": "Slash a transcoder. Only callable by the Verifier"
            },
            "transcoder(uint256,uint256)": {
                "notice": "Sets commission rates as a transcoder and if the caller is not in the transcoder pool tries to add it"
            },
            "transcoderStatus(address)": {
                "notice": "Computes transcoder status"
            },
            "transcoderTotalStake(address)": {
                "notice": "Returns total bonded stake for a transcoder"
            },
            "transcoderWithHint(uint256,uint256,address,address)": {
                "notice": "Sets commission rates as a transcoder and if the caller is not in the transcoder pool tries to add it using an optional list hint"
            },
            "unbond(uint256)": {
                "notice": "Unbond an amount of the delegator's bonded stake"
            },
            "unbondWithHint(uint256,address,address)": {
                "notice": "Unbond an amount of the delegator's bonded stake and updates the transcoder pool using an optional list hint if needed"
            },
            "updateTranscoderWithFees(address,uint256,uint256)": {
                "notice": "Update transcoder's fee pool. Only callable by the TicketBroker"
            },
            "withdrawFees()": {
                "notice": "Withdraws fees to the caller"
            },
            "withdrawStake(uint256)": {
                "notice": "Withdraws tokens for an unbonding lock that has existed through an unbonding period"
            }
        },
        "notice": "Manages bonding, transcoder and rewards/fee accounting related operations of the Livepeer protocol"
    }
}