{
    "contractName": "RoundsManager",
    "abi": [
        {
            "constant": true,
            "inputs": [],
            "name": "lastRoundLengthUpdateRound",
            "outputs": [
                {
                    "internalType": "uint256",
                    "name": "",
                    "type": "uint256"
                }
            ],
            "payable": false,
            "stateMutability": "view",
            "type": "function"
        },
        {
            "constant": true,
            "inputs": [
                {
                    "internalType": "uint256",
                    "name": "",
                    "type": "uint256"
                }
            ],
            "name": "LIPUpgradeRound",
            "outputs": [
                {
                    "internalType": "uint256",
                    "name": "",
                    "type": "uint256"
                }
            ],
            "payable": false,
            "stateMutability": "view",
            "type": "function"
        },
        {
            "constant": true,
            "inputs": [],
            "name": "targetContractId",
            "outputs": [
                {
                    "internalType": "bytes32",
                    "name": "",
                    "type": "bytes32"
                }
            ],
            "payable": false,
            "stateMutability": "view",
            "type": "function"
        },
        {
            "constant": true,
            "inputs": [],
            "name": "lastRoundLengthUpdateStartBlock",
            "outputs": [
                {
                    "internalType": "uint256",
                    "name": "",
                    "type": "uint256"
                }
            ],
            "payable": false,
            "stateMutability": "view",
            "type": "function"
        },
        {
            "constant": true,
            "inputs": [],
            "name": "lastInitializedRound",
            "outputs": [
                {
                    "internalType": "uint256",
                    "name": "",
                    "type": "uint256"
                }
            ],
            "payable": false,
            "stateMutability": "view",
            "type": "function"
        },
        {
            "constant": true,
            "inputs": [],
            "name": "roundLength",
            "outputs": [
                {
                    "internalType": "uint256",
                    "name": "",
                    "type": "uint256"
                }
            ],
            "payable": false,
            "stateMutability": "view",
            "type": "function"
        },
        {
            "constant": false,
            "inputs": [
                {
                    "internalType": "address",
                    "name": "_controller",
                    "type": "address"
                }
            ],
            "name": "setController",
            "outputs": [],
            "payable": false,
            "stateMutability": "nonpayable",
            "type": "function"
        },
        {
            "constant": true,
            "inputs": [],
            "name": "roundLockAmount",
            "outputs": [
                {
                    "internalType": "uint256",
                    "name": "",
                    "type": "uint256"
                }
            ],
            "payable": false,
            "stateMutability": "view",
            "type": "function"
        },
        {
            "constant": true,
            "inputs": [],
            "name": "controller",
            "outputs": [
                {
                    "internalType": "contract IController",
                    "name": "",
                    "type": "address"
                }
            ],
            "payable": false,
            "stateMutability": "view",
            "type": "function"
        },
        {
            "inputs": [
                {
                    "internalType": "address",
                    "name": "_controller",
                    "type": "address"
                }
            ],
            "payable": false,
            "stateMutability": "nonpayable",
            "type": "constructor"
        },
        {
            "anonymous": false,
            "inputs": [
                {
                    "indexed": true,
                    "internalType": "uint256",
                    "name": "round",
                    "type": "uint256"
                },
                {
                    "indexed": false,
                    "internalType": "bytes32",
                    "name": "blockHash",
                    "type": "bytes32"
                }
            ],
            "name": "NewRound",
            "type": "event"
        },
        {
            "anonymous": false,
            "inputs": [
                {
                    "indexed": false,
                    "internalType": "address",
                    "name": "controller",
                    "type": "address"
                }
            ],
            "name": "SetController",
            "type": "event"
        },
        {
            "anonymous": false,
            "inputs": [
                {
                    "indexed": false,
                    "internalType": "string",
                    "name": "param",
                    "type": "string"
                }
            ],
            "name": "ParameterUpdate",
            "type": "event"
        },
        {
            "constant": false,
            "inputs": [
                {
                    "internalType": "uint256",
                    "name": "_roundLength",
                    "type": "uint256"
                }
            ],
            "name": "setRoundLength",
            "outputs": [],
            "payable": false,
            "stateMutability": "nonpayable",
            "type": "function"
        },
        {
            "constant": false,
            "inputs": [
                {
                    "internalType": "uint256",
                    "name": "_roundLockAmount",
                    "type": "uint256"
                }
            ],
            "name": "setRoundLockAmount",
            "outputs": [],
            "payable": false,
            "stateMutability": "nonpayable",
            "type": "function"
        },
        {
            "constant": false,
            "inputs": [],
            "name": "initializeRound",
            "outputs": [],
            "payable": false,
            "stateMutability": "nonpayable",
            "type": "function"
        },
        {
            "constant": false,
            "inputs": [
                {
                    "internalType": "uint256",
                    "name": "_LIP",
                    "type": "uint256"
                },
                {
                    "internalType": "uint256",
                    "name": "_round",
                    "type": "uint256"
                }
            ],
            "name": "setLIPUpgradeRound",
            "outputs": [],
            "payable": false,
            "stateMutability": "nonpayable",
            "type": "function"
        },
        {
            "constant": true,
            "inputs": [],
            "name": "blockNum",
            "outputs": [
                {
                    "internalType": "uint256",
                    "name": "",
                    "type": "uint256"
                }
            ],
            "payable": false,
            "stateMutability": "view",
            "type": "function"
        },
        {
            "constant": true,
            "inputs": [
                {
                    "internalType": "uint256",
                    "name": "_block",
                    "type": "uint256"
                }
            ],
            "name": "blockHash",
            "outputs": [
                {
                    "internalType": "bytes32",
                    "name": "",
                    "type": "bytes32"
                }
            ],
            "payable": false,
            "stateMutability": "view",
            "type": "function"
        },
        {
            "constant": true,
            "inputs": [
                {
                    "internalType": "uint256",
                    "name": "_round",
                    "type": "uint256"
                }
            ],
            "name": "blockHashForRound",
            "outputs": [
                {
                    "internalType": "bytes32",
                    "name": "",
                    "type": "bytes32"
                }
            ],
            "payable": false,
            "stateMutability": "view",
            "type": "function"
        },
        {
            "constant": true,
            "inputs": [],
            "name": "currentRound",
            "outputs": [
                {
                    "internalType": "uint256",
                    "name": "",
                    "type": "uint256"
                }
            ],
            "payable": false,
            "stateMutability": "view",
            "type": "function"
        },
        {
            "constant": true,
            "inputs": [],
            "name": "currentRoundStartBlock",
            "outputs": [
                {
                    "internalType": "uint256",
                    "name": "",
                    "type": "uint256"
                }
            ],
            "payable": false,
            "stateMutability": "view",
            "type": "function"
        },
        {
            "constant": true,
            "inputs": [],
            "name": "currentRoundInitialized",
            "outputs": [
                {
                    "internalType": "bool",
                    "name": "",
                    "type": "bool"
                }
            ],
            "payable": false,
            "stateMutability": "view",
            "type": "function"
        },
        {
            "constant": true,
            "inputs": [],
            "name": "currentRoundLocked",
            "outputs": [
                {
                    "internalType": "bool",
                    "name": "",
                    "type": "bool"
                }
            ],
            "payable": false,
            "stateMutability": "view",
            "type": "function"
        }
    ],
    "bytecode": "0x608060405234801561001057600080fd5b50604051610fd3380380610fd38339818101604052602081101561003357600080fd5b5051600080546001600160a01b039092166001600160a01b0319909216919091179055610f6e806100656000396000f3fe608060405234801561001057600080fd5b506004361061012c5760003560e01c806385df51fd116100ad5780638fa148f2116100715780638fa148f21461025557806392eefe9b1461025d578063d4807fb214610283578063f5b490d51461028b578063f77c4791146102935761012c565b806385df51fd146102185780638807f36e146102355780638a19c8bc1461023d5780638ae63d6d146102455780638b649b941461024d5761012c565b80633aa4add4116100f45780633aa4add4146101c657806351720b41146101e3578063668abff7146101eb578063681312f5146101f35780636841f253146102105761012c565b80630b1573b8146101315780630fe1dfa81461015057806313013e7a1461016a578063219bc76c1461018d5780632ea6909f146101a9575b600080fd5b61014e6004803603602081101561014757600080fd5b50356102b7565b005b61015861042a565b60408051918252519081900360200190f35b61014e6004803603604081101561018057600080fd5b5080359060200135610430565b610195610578565b604080519115158252519081900360200190f35b610158600480360360208110156101bf57600080fd5b503561058b565b610158600480360360208110156101dc57600080fd5b503561059d565b6101586105af565b6101586105b5565b61014e6004803603602081101561020957600080fd5b50356105bb565b610195610779565b6101586004803603602081101561022e57600080fd5b50356107c7565b610158610867565b61015861086d565b6101586108ac565b6101586108b0565b6101586108b6565b61014e6004803603602081101561027357600080fd5b50356001600160a01b03166108f6565b61014e6109a9565b610158610be6565b61029b610bec565b604080516001600160a01b039092168252519081900360200190f35b6000809054906101000a90046001600160a01b03166001600160a01b0316638da5cb5b6040518163ffffffff1660e01b815260040160206040518083038186803b15801561030457600080fd5b505afa158015610318573d6000803e3d6000fd5b505050506040513d602081101561032e57600080fd5b50516001600160a01b0316331461038c576040805162461bcd60e51b815260206004820152601f60248201527f63616c6c6572206d75737420626520436f6e74726f6c6c6572206f776e657200604482015290519081900360640190fd5b61039581610bfb565b6103d05760405162461bcd60e51b815260040180806020018281038252602c815260200180610ee2602c913960400191505060405180910390fd5b6003819055604080516020808252600f908201526e1c9bdd5b99131bd8dad05b5bdd5b9d608a1b8183015290517f9f5033568d78ae30f29f01e944f97b2216493bd19d1b46d429673acff3dcd6749181900360600190a150565b60055481565b6000809054906101000a90046001600160a01b03166001600160a01b0316638da5cb5b6040518163ffffffff1660e01b815260040160206040518083038186803b15801561047d57600080fd5b505afa158015610491573d6000803e3d6000fd5b505050506040513d60208110156104a757600080fd5b50516001600160a01b03163314610505576040805162461bcd60e51b815260206004820152601f60248201527f63616c6c6572206d75737420626520436f6e74726f6c6c6572206f776e657200604482015290519081900360640190fd5b60008281526008602052604090205415610566576040805162461bcd60e51b815260206004820152601d60248201527f4c4950207570677261646520726f756e6420616c726561647920736574000000604482015290519081900360640190fd5b60009182526008602052604090912055565b600061058261086d565b60045414905090565b60086020526000908152604090205481565b60009081526007602052604090205490565b60015481565b60065481565b6000809054906101000a90046001600160a01b03166001600160a01b0316638da5cb5b6040518163ffffffff1660e01b815260040160206040518083038186803b15801561060857600080fd5b505afa15801561061c573d6000803e3d6000fd5b505050506040513d602081101561063257600080fd5b50516001600160a01b03163314610690576040805162461bcd60e51b815260206004820152601f60248201527f63616c6c6572206d75737420626520436f6e74726f6c6c6572206f776e657200604482015290519081900360640190fd5b600081116106e5576040805162461bcd60e51b815260206004820152601860248201527f726f756e64206c656e6774682063616e6e6f7420626520300000000000000000604482015290519081900360640190fd5b60025461070c5760028190556106f961086d565b6005556107046108b6565b600655610728565b61071461086d565b60055561071f6108b6565b60065560028190555b604080516020808252600b908201526a0e4deeadcc898cadccee8d60ab1b8183015290517f9f5033568d78ae30f29f01e944f97b2216493bd19d1b46d429673acff3dcd6749181900360600190a150565b60008061078a600254600354610c04565b6002549091506107a0908263ffffffff610c2616565b6107bf6107ab6108b6565b6107b36108ac565b9063ffffffff610c2616565b101591505090565b6000806107d26108ac565b90508083106108125760405162461bcd60e51b8152600401808060200182810382526023815260200180610ebf6023913960400191505060405180910390fd5b610100811080610826575061010081038310155b6108615760405162461bcd60e51b815260040180806020018281038252602c815260200180610f0e602c913960400191505060405180910390fd5b50504090565b60045481565b6000806108906002546108846006546107b36108ac565b9063ffffffff610c8316565b6005549091506108a6908263ffffffff610ced16565b91505090565b4390565b60025481565b6000806108cd6002546108846006546107b36108ac565b90506108a66108e760025483610d4790919063ffffffff16565b6006549063ffffffff610ced16565b6000546001600160a01b03163314610955576040805162461bcd60e51b815260206004820152601960248201527f63616c6c6572206d75737420626520436f6e74726f6c6c657200000000000000604482015290519081900360640190fd5b600080546001600160a01b0383166001600160a01b0319909116811790915560408051918252517f4ff638452bbf33c012645d18ae6f05515ff5f2d1dfb0cece8cbf018c60903f709181900360200190a150565b6000809054906101000a90046001600160a01b03166001600160a01b0316635c975abb6040518163ffffffff1660e01b815260040160206040518083038186803b1580156109f657600080fd5b505afa158015610a0a573d6000803e3d6000fd5b505050506040513d6020811015610a2057600080fd5b505115610a67576040805162461bcd60e51b815260206004820152601060248201526f1cde5cdd195b481a5cc81c185d5cd95960821b604482015290519081900360640190fd5b6000610a7161086d565b90508060045410610ac9576040805162461bcd60e51b815260206004820152601960248201527f726f756e6420616c726561647920696e697469616c697a656400000000000000604482015290519081900360640190fd5b60048190556000610ae5610ae060016107b36108ac565b6107c7565b60008381526007602052604090208190559050610b00610da0565b6001600160a01b031663713f22166040518163ffffffff1660e01b8152600401600060405180830381600087803b158015610b3a57600080fd5b505af1158015610b4e573d6000803e3d6000fd5b50505050610b5a610e3b565b6001600160a01b031663ece2064c6040518163ffffffff1660e01b8152600401600060405180830381600087803b158015610b9457600080fd5b505af1158015610ba8573d6000803e3d6000fd5b50506040805184815290518593507f22f2fc17c5daf07db2379b3a03a8ef20a183f761097a58fce219c8a14619e78692509081900360200190a25050565b60035481565b6000546001600160a01b031681565b620f4240101590565b6000610c1d620f4240610884858563ffffffff610d4716565b90505b92915050565b600082821115610c7d576040805162461bcd60e51b815260206004820152601e60248201527f536166654d6174683a207375627472616374696f6e206f766572666c6f770000604482015290519081900360640190fd5b50900390565b6000808211610cd9576040805162461bcd60e51b815260206004820152601a60248201527f536166654d6174683a206469766973696f6e206279207a65726f000000000000604482015290519081900360640190fd5b6000828481610ce457fe5b04949350505050565b600082820183811015610c1d576040805162461bcd60e51b815260206004820152601b60248201527f536166654d6174683a206164646974696f6e206f766572666c6f770000000000604482015290519081900360640190fd5b600082610d5657506000610c20565b82820282848281610d6357fe5b0414610c1d5760405162461bcd60e51b8152600401808060200182810382526021815260200180610e9e6021913960400191505060405180910390fd5b60008054604080516d2137b73234b733a6b0b730b3b2b960911b8152815190819003600e018120631c2d8fb360e31b8252600482015290516001600160a01b039092169163e16c7d9891602480820192602092909190829003018186803b158015610e0a57600080fd5b505afa158015610e1e573d6000803e3d6000fd5b505050506040513d6020811015610e3457600080fd5b5051905090565b60008054604080516526b4b73a32b960d11b81528151908190036006018120631c2d8fb360e31b8252600482015290516001600160a01b039092169163e16c7d9891602480820192602092909190829003018186803b158015610e0a57600080fdfe536166654d6174683a206d756c7469706c69636174696f6e206f766572666c6f7763616e206f6e6c79207265747269657665207061737420626c6f636b20686173686573726f756e64206c6f636b20616d6f756e74206d75737420626520612076616c69642070657263656e7461676563616e206f6e6c792072657472696576652068617368657320666f72206c6173742032353620626c6f636b73a265627a7a723158205b26eca8fa8a0f8ad0e69c66a0115396bb8df49ad2fcd564b23c346a4169669264736f6c634300050b0032",
    "source": "pragma solidity ^0.5.11;\n\nimport \"../ManagerProxyTarget.sol\";\nimport \"./IRoundsManager.sol\";\nimport \"../bonding/IBondingManager.sol\";\nimport \"../token/IMinter.sol\";\nimport \"../libraries/MathUtils.sol\";\n\nimport \"openzeppelin-solidity/contracts/math/SafeMath.sol\";\n\n\n/**\n * @title RoundsManager\n * @notice Manages round progression and other blockchain time related operations of the Livepeer protocol\n */\ncontract RoundsManager is ManagerProxyTarget, IRoundsManager {\n    using SafeMath for uint256;\n\n    // Round length in blocks\n    uint256 public roundLength;\n    // Lock period of a round as a % of round length\n    // Transcoders cannot join the transcoder pool or change their rates during the lock period at the end of a round\n    // The lock period provides delegators time to review transcoder information without changes\n    // # of blocks in the lock period = (roundLength * roundLockAmount) / PERC_DIVISOR\n    uint256 public roundLockAmount;\n    // Last initialized round. After first round, this is the last round during which initializeRound() was called\n    uint256 public lastInitializedRound;\n    // Round in which roundLength was last updated\n    uint256 public lastRoundLengthUpdateRound;\n    // Start block of the round in which roundLength was last updated\n    uint256 public lastRoundLengthUpdateStartBlock;\n\n    // Mapping round number => block hash for the round\n    mapping (uint256 => bytes32) internal _blockHashForRound;\n\n    // mapping(LIP-number > round number)\n    mapping(uint256 => uint256) public LIPUpgradeRound; \n\n    /**\n     * @notice RoundsManager constructor. Only invokes constructor of base Manager contract with provided Controller address\n     * @dev This constructor will not initialize any state variables besides `controller`. The following setter functions\n     * should be used to initialize state variables post-deployment:\n     * - setRoundLength()\n     * - setRoundLockAmount()\n     * @param _controller Address of Controller that this contract will be registered with\n     */\n    constructor(address _controller) public Manager(_controller) {}\n\n    /**\n     * @notice Set round length. Only callable by the controller owner\n     * @param _roundLength Round length in blocks\n     */\n    function setRoundLength(uint256 _roundLength) external onlyControllerOwner {\n        require(_roundLength > 0, \"round length cannot be 0\");\n\n        if (roundLength == 0) {\n            // If first time initializing roundLength, set roundLength before\n            // lastRoundLengthUpdateRound and lastRoundLengthUpdateStartBlock\n            roundLength = _roundLength;\n            lastRoundLengthUpdateRound = currentRound();\n            lastRoundLengthUpdateStartBlock = currentRoundStartBlock();\n        } else {\n            // If updating roundLength, set roundLength after\n            // lastRoundLengthUpdateRound and lastRoundLengthUpdateStartBlock\n            lastRoundLengthUpdateRound = currentRound();\n            lastRoundLengthUpdateStartBlock = currentRoundStartBlock();\n            roundLength = _roundLength;\n        }\n\n        emit ParameterUpdate(\"roundLength\");\n    }\n\n    /**\n     * @notice Set round lock amount. Only callable by the controller owner\n     * @param _roundLockAmount Round lock amount as a % of the number of blocks in a round\n     */\n    function setRoundLockAmount(uint256 _roundLockAmount) external onlyControllerOwner {\n        require(MathUtils.validPerc(_roundLockAmount), \"round lock amount must be a valid percentage\");\n\n        roundLockAmount = _roundLockAmount;\n\n        emit ParameterUpdate(\"roundLockAmount\");\n    }\n\n    /**\n     * @notice Initialize the current round. Called once at the start of any round\n     */\n    function initializeRound() external whenSystemNotPaused {\n        uint256 currRound = currentRound();\n\n        // Check if already called for the current round\n        require(lastInitializedRound < currRound, \"round already initialized\");\n\n        // Set current round as initialized\n        lastInitializedRound = currRound;\n        // Store block hash for round\n        bytes32 roundBlockHash = blockHash(blockNum().sub(1));\n        _blockHashForRound[currRound] = roundBlockHash;\n        // Set total active stake for the round\n        bondingManager().setCurrentRoundTotalActiveStake();\n        // Set mintable rewards for the round\n        minter().setCurrentRewardTokens();\n\n        emit NewRound(currRound, roundBlockHash);\n    }\n\n    /**\n     * @notice setLIPUpgradeRound sets the round an LIP upgrade would become active. \n     * @param _LIP the LIP number.\n     * @param _round the round in which the LIP becomes active\n     */\n    function setLIPUpgradeRound(uint256 _LIP, uint256 _round) external onlyControllerOwner {\n        require(LIPUpgradeRound[_LIP] == 0, \"LIP upgrade round already set\");\n        LIPUpgradeRound[_LIP] = _round;\n    }\n\n    /**\n     * @notice Return current block number\n     */\n    function blockNum() public view returns (uint256) {\n        return block.number;\n    }\n\n    /**\n     * @notice Return blockhash for a block\n     */\n    function blockHash(uint256 _block) public view returns (bytes32) {\n        uint256 currentBlock = blockNum();\n        require(_block < currentBlock, \"can only retrieve past block hashes\");\n        require(currentBlock < 256 || _block >= currentBlock - 256, \"can only retrieve hashes for last 256 blocks\");\n\n        return blockhash(_block);\n    }\n\n    /**\n     * @notice Return blockhash for a round\n     * @param _round Round number\n     * @return Blockhash for `_round`\n     */\n    function blockHashForRound(uint256 _round) public view returns (bytes32) {\n        return _blockHashForRound[_round];\n    }\n\n    /**\n     * @notice Return current round\n     */\n    function currentRound() public view returns (uint256) {\n        // Compute # of rounds since roundLength was last updated\n        uint256 roundsSinceUpdate = blockNum().sub(lastRoundLengthUpdateStartBlock).div(roundLength);\n        // Current round = round that roundLength was last updated + # of rounds since roundLength was last updated\n        return lastRoundLengthUpdateRound.add(roundsSinceUpdate);\n    }\n\n    /**\n     * @notice Return start block of current round\n     */\n    function currentRoundStartBlock() public view returns (uint256) {\n        // Compute # of rounds since roundLength was last updated\n        uint256 roundsSinceUpdate = blockNum().sub(lastRoundLengthUpdateStartBlock).div(roundLength);\n        // Current round start block = start block of round that roundLength was last updated + (# of rounds since roundLenght was last updated * roundLength)\n        return lastRoundLengthUpdateStartBlock.add(roundsSinceUpdate.mul(roundLength));\n    }\n\n    /**\n     * @notice Check if current round is initialized\n     */\n    function currentRoundInitialized() public view returns (bool) {\n        return lastInitializedRound == currentRound();\n    }\n\n    /**\n     * @notice Check if we are in the lock period of the current round\n     */\n    function currentRoundLocked() public view returns (bool) {\n        uint256 lockedBlocks = MathUtils.percOf(roundLength, roundLockAmount);\n        return blockNum().sub(currentRoundStartBlock()) >= roundLength.sub(lockedBlocks);\n    }\n\n    /**\n     * @dev Return BondingManager interface\n     */\n    function bondingManager() internal view returns (IBondingManager) {\n        return IBondingManager(controller.getContract(keccak256(\"BondingManager\")));\n    }\n\n    /**\n     * @dev Return Minter interface\n     */\n    function minter() internal view returns (IMinter) {\n        return IMinter(controller.getContract(keccak256(\"Minter\")));\n    }\n}\n",
    "sourcePath": "/Users/nico/Desktop/livepeer/protocol/contracts/rounds/RoundsManager.sol",
    "compiler": {
        "name": "solc",
        "version": "0.5.11+commit.22be8592.Linux.g++"
    },
    "schemaVersion": "3.0.23",
    "updatedAt": "2020-09-08T20:38:18.260Z",
    "devdoc": {
        "methods": {
            "blockHashForRound(uint256)": {
                "params": {
                    "_round": "Round number"
                },
                "return": "Blockhash for `_round`"
            },
            "constructor": {
                "details": "This constructor will not initialize any state variables besides `controller`. The following setter functions should be used to initialize state variables post-deployment: - setRoundLength() - setRoundLockAmount()",
                "params": {
                    "_controller": "Address of Controller that this contract will be registered with"
                }
            },
            "setController(address)": {
                "params": {
                    "_controller": "Controller contract address"
                }
            },
            "setLIPUpgradeRound(uint256,uint256)": {
                "params": {
                    "_LIP": "the LIP number.",
                    "_round": "the round in which the LIP becomes active"
                }
            },
            "setRoundLength(uint256)": {
                "params": {
                    "_roundLength": "Round length in blocks"
                }
            },
            "setRoundLockAmount(uint256)": {
                "params": {
                    "_roundLockAmount": "Round lock amount as a % of the number of blocks in a round"
                }
            }
        },
        "title": "RoundsManager"
    },
    "userdoc": {
        "methods": {
            "blockHash(uint256)": {
                "notice": "Return blockhash for a block"
            },
            "blockHashForRound(uint256)": {
                "notice": "Return blockhash for a round"
            },
            "blockNum()": {
                "notice": "Return current block number"
            },
            "constructor": "RoundsManager constructor. Only invokes constructor of base Manager contract with provided Controller address",
            "currentRound()": {
                "notice": "Return current round"
            },
            "currentRoundInitialized()": {
                "notice": "Check if current round is initialized"
            },
            "currentRoundLocked()": {
                "notice": "Check if we are in the lock period of the current round"
            },
            "currentRoundStartBlock()": {
                "notice": "Return start block of current round"
            },
            "initializeRound()": {
                "notice": "Initialize the current round. Called once at the start of any round"
            },
            "setController(address)": {
                "notice": "Set controller. Only callable by current controller"
            },
            "setLIPUpgradeRound(uint256,uint256)": {
                "notice": "setLIPUpgradeRound sets the round an LIP upgrade would become active. "
            },
            "setRoundLength(uint256)": {
                "notice": "Set round length. Only callable by the controller owner"
            },
            "setRoundLockAmount(uint256)": {
                "notice": "Set round lock amount. Only callable by the controller owner"
            }
        },
        "notice": "Manages round progression and other blockchain time related operations of the Livepeer protocol"
    }
}